:100000000C945E000C9486000C9486000C94860080
:100010000C9486000C9486000C9486000C94860048
:100020000C9486000C9486000C9486000C94860038
:100030000C9486000C9486000C9486000C94860028
:100040000C944B020C9486000C94BB020C94950209
:100050000C9486000C9486000C9486000C94860008
:100060000C9486000C9486000000000024002700F9
:100070002A0000000000250028002B0004040404CE
:100080000404040402020202020203030303030342
:10009000010204081020408001020408102001021F
:1000A00004081020000000080002010000030407FB
:1000B0000000000000000000ED029D0411241FBE9E
:1000C000CFEFD8E0DEBFCDBF22E0ACEAB1E001C0A7
:1000D0001D92AC35B207E1F711E0A0E0B1E0E0ED30
:1000E000FDE002C005900D92AC3AB107D9F710E0DF
:1000F000CDE5D0E004C02197FE010E94DA04CC35A2
:10010000D107C9F70E9428030C94DB060C94000069
:10011000E1EBF0E02491EDE9F0E09491E9E8F0E022
:10012000E491EE23C9F0222339F0233001F1A8F441
:10013000213019F1223029F1F0E0EE0FFF1FEE58C7
:10014000FF4FA591B4912FB7F894EC91811126C07F
:1001500090959E239C932FBF08952730A9F02830B7
:10016000C9F0243049F7209180002F7D03C02091F1
:1001700080002F7720938000DFCF24B52F7724BD18
:10018000DBCF24B52F7DFBCF2091B0002F772093BC
:10019000B000D2CF2091B0002F7DF9CF9E2BDACFC7
:1001A000AF92BF92CF92DF92EF92FF920F931F9385
:1001B000CF93DF936C017B018B01040F151FEB01C3
:1001C0005E01AE18BF08C017D10759F06991D6017A
:1001D000ED91FC910190F081E02DC6010995892BEC
:1001E00079F7C501DF91CF911F910F91FF90EF90AB
:1001F000DF90CF90BF90AF900895FC01538D448D58
:10020000252F30E0842F90E0821B930B541710F0C1
:10021000CF96089501970895FC01918D828D9817CE
:1002200061F0A28DAE0FBF2FB11D5D968C91928DA6
:100230009F5F9F73928F90E008958FEF9FEF0895D7
:10024000FC01918D828D981731F0828DE80FF11DA0
:10025000858D90E008958FEF9FEF0895FC01918DBB
:10026000228D892F90E0805C9F4F821B91098F73B4
:100270009927089585EB91E00E942E0121E0892BBA
:1002800009F420E0822F089580E090E0892B29F086
:100290000E943A0181110C9400000895FC01A48D84
:1002A000A80FB92FB11DA35ABF4F2C91848D90E098
:1002B00001968F739927848FA689B7892C93A0897B
:1002C000B1898C91837080648C93938D848D981305
:1002D00006C00288F389E02D80818F7D8083089598
:1002E000EF92FF920F931F93CF93DF93EC0181E086
:1002F000888F9B8D8C8D98131AC0E889F98980812D
:1003000085FF15C09FB7F894EE89FF896083E8895F
:10031000F98980818370806480839FBF81E090E051
:10032000DF91CF911F910F91FF90EF900895F62EDE
:100330000B8D10E00F5F1F4F0F731127E02E8C8D78
:100340008E110CC00FB607FCFACFE889F9898081BD
:1003500085FFF5CFCE010E944E01F1CFEB8DEC0F62
:10036000FD2FF11DE35AFF4FF0829FB7F8940B8FDA
:10037000EA89FB8980818062CFCFCF93DF93EC0144
:10038000888D8823B9F0AA89BB89E889F9898C917D
:1003900085FD03C0808186FD0DC00FB607FCF7CF39
:1003A0008C9185FFF2CF808185FFEDCFCE010E9439
:1003B0004E01E9CFDF91CF910895FC01019000201B
:1003C000E9F73197AF01481B590BBC0185EB91E070
:1003D0000C94D000CF93DF930E94DD01EC0188E103
:1003E00091E00E94DD018C0F9D1FDF91CF91089558
:1003F0000F931F93CF93DF93EC018881998100972E
:1004000059F02A813B812617370730F081E0DF91D0
:10041000CF911F910F9108958B016F5F7F4F0E94C5
:100420000506009759F0998388831B830A832C81E2
:100430003D81232B59F7FC011082E8CF80E0E7CF04
:10044000EF92FF920F931F93CF93DF93EC017B0109
:100450008A01BA010E94F80128813981811114C0F2
:100460002115310519F0C9010E947C0519821882F5
:100470001D821C821B821A82CE01DF91CF911F91B7
:100480000F91FF90EF9008951D830C83B701C90170
:100490000E94D406F1CF1F920F920FB60F92112433
:1004A0002F933F938F939F93AF93BF938091B1010D
:1004B0009091B201A091B301B091B4013091B0011B
:1004C00023E0230F2D3758F50196A11DB11D209370
:1004D000B0018093B1019093B201A093B301B093A6
:1004E000B4018091AC019091AD01A091AE01B091A9
:1004F000AF010196A11DB11D8093AC019093AD0198
:10050000A093AE01B093AF01BF91AF919F918F9136
:100510003F912F910F900FBE0F901F90189526E8D6
:10052000230F0296A11DB11DD2CF1F920F920FB6BD
:100530000F9211242F933F934F935F936F937F9369
:100540008F939F93AF93BF93EF93FF9385EB91E0CE
:100550000E944E01FF91EF91BF91AF919F918F91BA
:100560007F916F915F914F913F912F910F900FBEAF
:100570000F901F9018951F920F920FB60F92112493
:100580002F938F939F93EF93FF93E091C501F09189
:10059000C6018081E091CB01F091CC0182FD1BC0AE
:1005A00090818091CE018F5F8F732091CF01821750
:1005B00041F0E091CE01F0E0EB54FE4F958F809337
:1005C000CE01FF91EF919F918F912F910F900FBED0
:1005D0000F901F9018958081F4CFE5EBF1E0138226
:1005E000128288EE93E0A0E0B0E084839583A68336
:1005F000B7838AE091E09183808385EC90E09587D2
:10060000848784EC90E09787868780EC90E0918BDC
:10061000808B81EC90E0938B828B82EC90E0958BC9
:10062000848B86EC90E0978B868B118E128E138EC6
:10063000148EE2E5F2E0118210821382128215829A
:10064000148250E040E06AE171E0CF010C94200296
:10065000CF93DF9300D000D000D0CDB7DEB7789431
:1006600084B5826084BD84B5816084BD85B58260B7
:1006700085BD85B5816085BD80916E008160809368
:100680006E001092810080918100826080938100D1
:1006900080918100816080938100809180008160E1
:1006A000809380008091B10084608093B10080913C
:1006B000B00081608093B00080917A008460809364
:1006C0007A0080917A00826080937A0080917A002B
:1006D000816080937A0080917A00806880937A00AC
:1006E0001092C100E091C501F091C60182E08083C3
:1006F000E091C501F091C6011082E091C101F09135
:10070000C2011082E091C301F091C40180E18083B5
:100710001092CD01E091C901F091CA0186E0808379
:10072000E091C701F091C801808180618083E091F0
:10073000C701F091C801808188608083E091C70182
:10074000F091C801808180688083E091C701F091B9
:10075000C80180818F7D80838BE191E00E94DD0163
:1007600086E291E00E94EA018EE691E00E94DD01BE
:1007700089E791E00E94EA0184E291E00E94EA01A7
:10078000EDE9F0E02491E9E8F0E08491882399F024
:1007900090E0880F991FFC01E859FF4FA591B49193
:1007A000FC01EE58FF4F859194918FB7F894EC912E
:1007B000E22BEC938FBF80E0E82E80E0F82E85EBF3
:1007C00091E00E942E01892B51F185EB91E00E946E
:1007D0000C0100915602109157028A3051F18D3070
:1007E00041F189831A820F5F1F4FB80182E592E0C1
:1007F0000E94F801882399F020915202309153020F
:100800008091560290915702BE016F5F7F4F820F19
:10081000931F0E94D4061093570200935602E114CE
:10082000F10469F20E943A01882349F20E94000013
:10083000C6CF012BA1F3E0915202F09153028081C7
:10084000882369F31A8219821C821B821E821D82F0
:1008500049E050E065E871E0CE0101960E94200277
:10086000C0905202D0905302C114D10409F44AC07E
:10087000009156021091570201151105B1F08D81BA
:100880009E81080F191FB801CE0101960E94F80140
:100890008823C1F129813A818D819E81B601820F21
:1008A000931F0E94D4061E830D834D815E81698152
:1008B0007A8185EB91E00E94D00088E191E00E946E
:1008C000DD0189819A810E947C0580915602909178
:1008D0005702892B69F100915202109153026FE87F
:1008E00071E0C8010E94CB06892BC9F481E00E9407
:1008F000880050E040E06AE171E082E592E00E9409
:1009000020028DCF89819A81009711F00E947C0589
:100910001A8219821E821D821C821B82C6CF65E943
:1009200071E0C8010E94CB06892B11F480E0DFCF73
:100930008CE991E00E94EA01DCCF80915202909113
:1009400053020C947C052F923F924F925F926F92CC
:100950007F928F929F92AF92BF92CF92DF92EF924F
:10096000FF920F931F93CF93DF93CDB7DEB7CA1BD0
:10097000DB0B0FB6F894DEBF0FBECDBF09942A88FB
:10098000398848885F846E847D848C849B84AA84A3
:10099000B984C884DF80EE80FD800C811B81AA8130
:1009A000B981CE0FD11D0FB6F894DEBF0FBECDBFFB
:1009B000ED010895EE0FFF1F0590F491E02D0994CD
:1009C0000F931F93CF93DF938230910510F482E051
:1009D00090E0E0915A02F0915B0230E020E0B0E05C
:1009E000A0E0309799F42115310509F44AC0281B7D
:1009F000390B24303105D8F58A819B816115710549
:100A000089F1FB0193838283FE0111C040815181F2
:100A10000281138148175907E0F04817590799F4E4
:100A2000109761F012960C93129713961C933296BE
:100A3000CF01DF91CF911F910F91089500935A023A
:100A400010935B02F4CF2115310551F04217530783
:100A500038F0A901DB019A01BD01DF01F801C1CF26
:100A6000EF01F9CF90935B0280935A02CDCFFE0144
:100A7000E20FF31F81939193225031093983288328
:100A8000D7CF2091580230915902232B41F4209165
:100A900002013091030130935902209358022091B2
:100AA0000001309101012115310541F42DB73EB708
:100AB0004091040150910501241B350BE09158022F
:100AC000F0915902E217F307A0F42E1B3F0B2817F1
:100AD000390778F0AC014E5F5F4F2417350748F0B7
:100AE0004E0F5F1F50935902409358028193919388
:100AF0009FCFF0E0E0E09CCFCF93DF930097E9F049
:100B0000FC01329713821282A0915A02B0915B02CB
:100B1000ED0130E020E01097A1F420813181820FB7
:100B2000931F20915802309159022817390709F074
:100B300061C0F0935902E0935802DF91CF9108957C
:100B4000EA01CE17DF07E8F54A815B819E01411576
:100B50005105B1F7E901FB83EA8349915991C40F2B
:100B6000D51FEC17FD0761F4808191810296840FF7
:100B7000951FE90199838883828193819B838A836E
:100B8000F0E0E0E012968D919C9113970097B9F5F3
:100B90002D913C911197CD010296820F931F2091C8
:100BA0005802309159022817390739F6309751F514
:100BB00010925B0210925A02B0935902A09358020D
:100BC000BCCFD383C28340815181840F951FC81746
:100BD000D90761F44E5F5F4F88819981480F591F93
:100BE000518340838A819B819383828321153105C0
:100BF00009F0B0CFF0935B02E0935A029ECFFD0163
:100C0000DC01C0CF13821282D7CFB0E0A0E0EBE0CE
:100C1000F6E00C94A5048C01009751F4CB010E94DE
:100C2000E0048C01C801CDB7DEB7E0E10C94C1044B
:100C3000FC01E60FF71F9C0122503109E217F30770
:100C400008F49DC0D901CD91DC911197C617D70743
:100C500098F0C530D10530F3CE0104978617970779
:100C600008F3C61BD70B2297C193D1936D937C9346
:100C7000CF010E947C05D6CF5B01AC1ABD0A4C01A6
:100C80008C0E9D1EA0915A02B0915B02512C412CFA
:100C9000F12CE12C109731F5809158029091590276
:100CA0008815990509F05CC04616570608F058C02B
:100CB0008091000190910101009741F48DB79EB79A
:100CC0004091040150910501841B950BE817F90729
:100CD00008F055C0F0935902E0935802F90171836E
:100CE0006083A0CF8D919C91119712966C90129772
:100CF00013967C901397A815B90559F56C0142E03D
:100D0000C40ED11CCA14DB0420F1AC014A195B09E2
:100D1000DA011296159780F06282738251834083C4
:100D2000D9016D937C93E114F10471F0D70113960E
:100D3000FC93EE93129776CF22968C0F9D1FF901AC
:100D400091838083F301EFCFF0935B02E0935A022B
:100D500069CF4816590608F42C017D01D3019ACFBA
:100D6000CB010E94E0047C01009749F0AE01B8017C
:100D70000E94C206C8010E947C05870153CF10E083
:100D800000E050CFFB01DC0102C001900D92415008
:100D90005040D8F70895FB01DC018D910190801936
:100DA0000110D9F3990B0895FB01DC0101900D921C
:100DB0000020E1F7089510E0CDE5D0E004C0FE0189
:100DC0000E94DA042196CE35D107C9F7F894FFCFF7
:100DD00000005C028000000000007001D000FD00F7
:100DE000BD012E010C0120010D0A00536B657463D7
:100DF000683A202020002F55736572732F6B6C6545
:100E00006D2F446F63756D656E74732F41726475D9
:100E1000696E6F2F73657269616C2D636F6D6D2DD7
:100E200073616D706C652F73657269616C2D636F92
:100E30006D6D2D73616D706C652E696E6F005570F0
:100E40006C6F616465643A20004E6F762032342006
:100E50003230313900657865637574653A20006C0D
:100E600065644F4E006C65644F464600636F6D6D60
:0C0E7000616E6420756E6B6E6F776E0013
:00000001FF
