:100000000C949A010C94C2010C94C2010C94C2018C
:100010000C94C2010C94C2010C94C2010C94C20154
:100020000C94C2010C94C2010C94D1220C94C20114
:100030000C94C2010C9454220C94C2010C94C20181
:100040000C94B2210C94C2010C9422220C94FC2139
:100050000C94C2010C94C2010C94C2010C94C20114
:100060000C94C2010C94C201446F6E652E00436172
:100070006C6962726174696F6E206F66206275745C
:10008000746F6E73202D2069742077696C6C206208
:10009000652073746F726520696E20454550524F1C
:1000A0004D004E4F20434F4E4649470047414D4576
:1000B000532E50525400434F4E4649472E505254EF
:1000C00000434F4E4649472E50525400434F4E4630
:1000D00049472E5052540055492F4D454E552E57E5
:1000E00041560050524F5554532F5031302E5741E6
:1000F000560050524F5554532F5031302E574156C1
:1001000000544D502E5052540053434F52452E50E0
:100110005254002E574156002E574156007C3C3E0B
:100120005E2B3D3F2F5B5D3B2C2A225C004E4F2017
:1001300043414C4942524154494F4E2021004E45C3
:100140005854004552520047414D45532E50525489
:1001500000636F6D6D616E6420756E6B6E6F776E90
:100160000045584954004C5347414D4553002E001B
:100170005645520043414C4942005550004D4B44B6
:10018000495200310053434F52452E5052540053B0
:10019000434F52452E5052540053434F52452E5018
:1001A000525400594F55204C4F4F5345002F4C4F40
:1001B0004F53452E574156002E5741560055492F53
:1001C000555253434F52452E5741560055492F4CD7
:1001D0004F4F53452E57415600544D502E505254B8
:1001E00000544D502E50525400544D502E505254E5
:1001F000002E505254002F47414D452E5741560076
:100200002E5741560055492F484953434F52452ECA
:1002100057415600434F4E4649472E505254002FE7
:1002200047414D452E5741560050524F55540050AE
:10023000524F5554532F50392E5741560053544165
:1002400052545550004E4F205344000000000024EB
:100250000027002A0000000000250028002B0004D1
:10026000040404040404040202020202020303035D
:100270000303030102040810204080010204081057
:100280002001020408102000000008000201000004
:10029000030407000000000000000050524F5554B6
:1002A000532F50312E5741560039444239003343C1
:1002B0003300393636390037383638370037383773
:1002C000004638460031463100424400463742007D
:1002D0004639373800463333004639460046323413
:1002E0004600463234324600463800463244003931
:1002F0004631004600463646004644440046353105
:10030000004642420046393600463939004643002D
:1003100046354600303030303030006E6F74207912
:1003200065742063616C69627261746564210000A8
:10033000DD23B22D11241FBECFEFD8E0DEBFCDBF2D
:1003400026E0A0E8B1E001C01D92A730B207E1F7B6
:1003500011E0A0E0B1E0E2E9F2E602C005900D9202
:10036000A038B107D9F711E0C9E9D1E004C021975D
:10037000FE010E94002FC839D107C9F70E94142638
:100380000C943C310C94000090E0FC01E957FD4FC7
:100390002491FC01ED58FD4F3491FC01E15AFD4FD1
:1003A000E491EE23C9F0222339F0233001F1A8F4BF
:1003B000213019F1223029F1F0E0EE0FFF1FEB5A46
:1003C000FD4FA591B4918FB7F894EC91611126C0BF
:1003D00030953E233C938FBF08952730A9F02830F5
:1003E000C9F0243049F7809180008F7D03C080914F
:1003F00080008F7780938000DFCF84B58F7784BDB6
:10040000DBCF84B58F7DFBCF8091B0008F77809359
:10041000B000D2CF8091B0008F7DF9CF3E2BDACFE4
:10042000CF93DF9390E0FC01ED58FD4F2491815A6A
:100430009D4FFC0184918823D1F090E0880F991F93
:10044000FC01E55BFD4FA591B491FC01EB5AFD4F1A
:10045000C591D49161110EC09FB7F8948C91E22F91
:10046000E0958E238C932881E223E8839FBFDF9160
:10047000CF9108958FB7F894EC91E22BEC938FBF56
:10048000F6CF60E082E00E94100260E083E00E940C
:10049000100260E084E00E94100260E085E00E94AB
:1004A000100260E086E00E94100260E087E00E9497
:1004B000100260E082E00E94C40160E083E00E94DC
:1004C000C40160E084E00E94C40160E085E00E9415
:1004D000C40160E086E00E94C40160E087E00C9403
:1004E000C4010F931F93CF93DF93C82F0E94410243
:1004F000D0E08E01000F111F05541A4F61E0F80182
:1005000080810E941002CC0FDD1FC454DA4F61E0DD
:1005100088810E94100261E0F80180810E94C4017C
:1005200060E08881DF91CF911F910F910C94C401FD
:100530008E3008F08E508770806480937C008091AC
:100540007A00806480937A0080917A0086FDFCCFE7
:10055000809178009091790008953FB7F894809148
:10056000AA019091AB01A091AC01B091AD0126B56B
:10057000A89B05C02F3F19F00196A11DB11D3FBFDB
:10058000BA2FA92F982F8827BC01CD01620F711DAA
:10059000811D911D42E0660F771F881F991F4A95A4
:1005A000D1F708958F929F92AF92BF92CF92DF9230
:1005B000EF92FF926B017C010E94AD024B015C0146
:1005C000C114D104E104F104B9F00E94AD0268192C
:1005D00079098A099B09683E73408105910580F37A
:1005E00021E0C21AD108E108F10888EE880E83E004
:1005F000981EA11CB11CE4CFFF90EF90DF90CF902C
:10060000BF90AF909F908F9008951F93CF93DF93EB
:10061000182FD62FC0E0812F0E94710264E670E08F
:1006200080E090E00E94D2020E94410264E670E005
:1006300080E090E00E94D202CF5FDC13ECCFDF912C
:10064000CF911F9108952FB7F8946091A6017091F2
:10065000A7018091A8019091A9012FBF0895089545
:10066000AF92BF92CF92DF92EF92FF920F931F93C0
:10067000CF93DF936C017B018B01040F151FEB01FE
:100680005E01AE18BF08C017D10759F06991D601B5
:10069000ED91FC910190F081E02DC6010995892B27
:1006A00079F7C501DF91CF911F910F91FF90EF90E6
:1006B000DF90CF90BF90AF900895FC01538D448D93
:1006C000252F30E0842F90E0821B930B541710F0FD
:1006D000CF96089501970895FC01918D828D98170A
:1006E00061F0A28DAE0FBF2FB11D5D968C91928DE2
:1006F0009F5F9F73928F90E008958FEF9FEF089513
:10070000FC01918D828D981731F0828DE80FF11DDB
:10071000858D90E008958FEF9FEF0895FC01918DF6
:10072000228D892F90E0805C9F4F821B91098F73EF
:100730009927089587E394E00E948E0321E0892B96
:1007400009F420E0822F089580E090E0892B29F0C1
:100750000E949A0381110C9400000895FC01A48D5D
:10076000A80FB92FB11DA35ABF4F2C91848D90E0D3
:1007700001968F739927848FA689B7892C93A089B6
:10078000B1898C91837080648C93938D848D981340
:1007900006C00288F389E02D80818F7D80830895D3
:1007A000EF92FF920F931F93CF93DF93EC0181E0C1
:1007B000888F9B8D8C8D98131AC0E889F989808168
:1007C00085FF15C09FB7F894EE89FF896083E8899B
:1007D000F98980818370806480839FBF81E090E08D
:1007E000DF91CF911F910F91FF90EF900895F62E1A
:1007F0000B8D10E00F5F1F4F0F731127E02E8C8DB4
:100800008E110CC00FB607FCFACFE889F9898081F8
:1008100085FFF5CFCE010E94AE03F1CFEB8DEC0F3B
:10082000FD2FF11DE35AFF4FF0829FB7F8940B8F15
:10083000EA89FB8980818062CFCF0F931F93CF938A
:10084000DF938C01D0E0C0E0F801EC0FFD1F649154
:10085000662341F087E394E00E94D003892B11F0D6
:100860002196F2CFCE01DF91CF911F910F91089584
:10087000CF93DF93EC01888D8823B9F0AA89BB89D7
:10088000E889F9898C9185FD03C0808186FD0DC0C2
:100890000FB607FCF7CF8C9185FFF2CF808185FFE3
:1008A000EDCFCE010E94AE03E9CFDF91CF91089545
:1008B0008FB7F89480918A018FBF089561E0FC01A1
:1008C00084810E94C4018091890181111092890163
:1008D00008958EBD00000DB407FEFDCF8EB50895BE
:1008E0008FEF0C9469040F931F93CF93DF93EC0168
:1008F0000E9423038B010E9470048F3F69F00E94C5
:100900002303601B710B6C177D07A8F380E0DF9158
:10091000CF911F910F91089581E0F9CF8CBD9DBDBE
:100920000895CF93DF93EC0180918901811109C073
:1009300081E0809389018091D4049091D5040E9434
:100940008E0460E08C81DF91CF910C94C4018F9272
:100950009F92AF92BF92FF920F931F93CF93DF931B
:10096000EC01F62E49015A018E81882389F08F818E
:1009700098859C012F5F3F4F38872F8382309240AC
:1009800018F40E947004F3CFCE010E945E041E8210
:10099000CE010E9491048CE291E00E9473048F2D9D
:1009A00080640E94690408E110E0D501C401002EB2
:1009B00004C0B695A795979587950A94D2F70E949B
:1009C000690408501109083F8FEF180771F785E98E
:1009D000FF2021F028E087E8F2128FEF0E946904DF
:1009E00010E00E9470048A8787FF04C01F3F11F047
:1009F0001F5FF7CFDF91CF911F910F91FF90BF90B5
:100A0000AF909F908F900895AF92BF92CF92DF9258
:100A1000EF92FF920F931F93CF93DF93EC01690145
:100A2000C801820F931F8130924050F58E81882338
:100A300079F088819981AA81BB8184179507A607DF
:100A4000B70731F48F819885C816D90608F042C0DF
:100A5000488359836A837B838B85833039F089E0AF
:100A6000440F551F661F771F8A95D1F79A01AB0176
:100A700061E1CE010E94A704882389F083E08D8381
:100A8000CE010E945E0480E0DF91CF911F910F9113
:100A9000FF90EF90DF90CF90BF90AF9008950E94AD
:100AA00023035B010E9470048A878F3F69F40E94D0
:100AB00023036A197B096D327140A0F38FE08D83A7
:100AC000CE010E945E04DCCF8E3F89F418861F821F
:100AD00081E08E838F8198858C159D0550F40E944E
:100AE00070048F819885019698878F83F3CF8DE06E
:100AF000E6CF6701E00EF11E0E947004F6018193BB
:100B00006F01EE15FF05C1F78F819885080F191F3A
:100B100018870F838985882319F001151240A0F0EA
:100B20008E81882389F08F8198859C012F5F3F4FAC
:100B300038872F838230924018F40E947004F3CFDC
:100B4000CE010E945E041E8281E09ECFCF92DF9292
:100B5000EF92FF920F93CF93DF93EC01690182E153
:100B6000411551056105710599F08B85833039F088
:100B700089E0440F551F661F771F8A95D1F79A01A8
:100B8000AB0168E1CE010E94A704882319F084E03C
:100B90008D832DC08EEF0E94690476018EEFD81AE6
:100BA000F70181917F010E946904EC14FD04C1F7F3
:100BB0008FEF0E9469048FEF0E9469040E94700405
:100BC0008A878F71853071F4011116C0CE010E94A1
:100BD0005E0481E0DF91CF910F91FF90EF90DF9065
:100BE000CF90089581E18D83CE010E945E04CE01F5
:100BF0000E945E0480E0EECF88E592E00E947304DC
:100C0000811102C085E1C4CF20E030E0A9016DE090
:100C1000CE010E94A704882311F084E1B9CF0E947D
:100C200070048111FACFD2CF0F9340918C01509173
:100C30008D0160918E0170918F0141155105610503
:100C4000710599F0082F27E332E08091AE01909171
:100C5000AF010E94A605882349F010928C011092E2
:100C60008D0110928E0110928F0181E00F910895F5
:100C70000F93CF93C82F80918B01811105C0C1E0E4
:100C80008C2FCF910F910895409100015091010157
:100C900060910201709103010C2F27E332E08091F3
:100CA000AE019091AF010E94A605811102C0C0E083
:100CB000E7CFCC2321F381E00E9414068823B9F307
:100CC00010928B01DDCF8F929F92AF92BF92EF92E5
:100CD000FF920F931F93CF934B015C01C42F809120
:100CE000000190910101A0910201B09103018815CA
:100CF0009905AA05BB0551F181E00E9438068111D2
:100D00000BC080E0CF911F910F91FF90EF90BF90AB
:100D1000AF909F908F90089587E3E82E82E0F82EA1
:100D200000E012E030E020E0B501A4018091AE01C6
:100D30009091AF010E940405882319F3809200016D
:100D400090920101A0920201B092030140918B01A7
:100D50004C2B40938B0181E0D5CFCF93DF93EC01F7
:100D60006E857F858889998941E00E946306882382
:100D700051F08A8920E2829FC0011124895C9D4F35
:100D8000DF91CF91089590E080E0FACF8F929F920B
:100D9000AF92BF92CF92DF92EF92FF92CF9326ED68
:100DA00034E03093AF012093AE01882309F46DC085
:100DB00040E060E070E0CB010E94630681110BC04F
:100DC00080E0CF91FF90EF90DF90CF90BF90AF90F9
:100DD0009F908F9008958091F5038F7789F7809188
:100DE000010490910204A0910304B091040484369C
:100DF0009105A105B10520F3C090FD03D090FE033D
:100E0000E090FF03F0900004C114D104E104F10468
:100E1000B9F240E0C701B6010E946306882381F25F
:100E200080914202909143028115924049F6A0912F
:100E30004702AA2329F2609145027091460261158A
:100E4000710509F4BDCF20914402222309F4B8CFE3
:100E5000A093F4042093E60490E080E030E0E1E029
:100E6000F0E0C82FAF01082E02C0440F551F0A94AE
:100E7000E2F72417350769F041E0480F0196893001
:100E8000910579F74093EF049BCFC12CD12C7601CB
:100E9000C0CF8093EF0420914D0230914E0250E07C
:100EA00040E02115310541F420915B0230915C0254
:100EB00040915D0250915E022093E7043093E80474
:100EC0004093E9045093EA0446015701860E971EA9
:100ED000A11CB11C8092F5049092F604A092F70434
:100EE000B092F804E0914802F0914902F093FB04BB
:100EF000E093FA04B0E00E944E2EDC01CB01880D95
:100F0000991DAA1DBB1D8093FC049093FD04A09322
:100F1000FE04B093FF0425E0EE0FFF1F2A95E1F7D2
:100F2000E150FE4FEF2FFF27E6958E0F9F1FA11D6B
:100F3000B11D8093F0049093F104A093F204B09358
:100F4000F30480904A0290904B02B12CA12C8114A2
:100F5000910441F48090570290905802A090590259
:100F6000B0905A02C81AD90AEA0AFB0AC80CD91C5E
:100F7000EA1CFB1C04C0F694E794D794C794CA9566
:100F8000D2F7C092EB04D092EC04E092ED04F09220
:100F9000EE0485EFC8168FE0D806E104F10428F4CA
:100FA0008CE08093F90481E00CCF80E125EFC2163C
:100FB0002FEFD206E104F104A0F380916302909137
:100FC0006402A0916502B09166028093FC04909344
:100FD000FD04A093FE04B093FF0480E2E2CF4F92A1
:100FE0005F926F927F928F929F92AF92BF92CF92B9
:100FF000DF92EF92FF920F931F93CF93DF93EC0159
:10100000423051056105710590F480E0DF91CF9188
:101010001F910F91FF90EF90DF90CF90BF90AF9016
:101020009F908F907F906F905F904F9008958985EB
:101030009A85AB85BC850196A11DB11D84179507C6
:10104000A607B70710F3CB88DC88ED88FE888F8968
:10105000803109F042C0BB27A72F962F852F48016A
:1010600059012A013B01C80ED91EEA1EFB1E8091C0
:10107000000190910101A0910201B0910301C816F5
:10108000D906EA06FB0699F58F898031C1F5B301CF
:10109000A201552766277727440F551F495C5D4FEE
:1010A000FA019182808280918B01816080938B0113
:1010B0008A89823080F08D819E81AF81B8858C0DC8
:1010C0009D1DAE1DBF1D80938C0190938D01A0933B
:1010D0008E01B0938F0181E099CFDB01CA01E7E077
:1010E000B695A79597958795EA95D1F7B8CF40E043
:1010F000C701B6010E9463068111C6CF86CFB30136
:10110000A2014F77552766277727440F551F440FB5
:10111000551F495C5D4FFA0180829182A282B382A1
:10112000C2CF8F929F92AF92BF92CF92DF92EF92F7
:10113000FF920F931F93CF93DF93FC0181859285DC
:10114000A385B4850196A11DB11D84179507A60737
:10115000B70770F480E0DF91CF911F910F91FF905E
:10116000EF90DF90CF90BF90AF909F908F900895B9
:1011700083889488A588B6888789803189F5BB27BC
:10118000A72F962F852FE9016A017B018F01BC01F2
:10119000CD01680D791D8A1D9B1D809000019090E6
:1011A0000101A0900201B090030186169706A806DF
:1011B000B90601F5F8018789803111F5DD24EE24A7
:1011C000FF24F601EE0FFF1FE95CFD4F8081918146
:1011D000B0E0A0E088839983AA83BB8381E0BBCF82
:1011E000DB01CA01C7E0B695A79597958795CA9583
:1011F000D1F7C9CF40E00E9463068111DBCFAACFAF
:10120000E894C7F8DD24EE24FF24F601EE0FFF1F5B
:10121000EE0FFF1FE95CFD4F80819181A281B381B8
:10122000BF70D8CF4F925F926F927F92AF92BF9272
:10123000CF92DF92EF92FF920F931F93CF93DF93A2
:1012400000D000D0CDB7DEB78C0149835A836B83C1
:101250007C835901C12CD12C7601412C82E0582E7F
:10126000612C712C49815A816B817C819E012F5F99
:101270003F4FC8010E949108882339F1F801858504
:10128000A301920104C0220F331F441F551F8A95EA
:10129000D2F7DA01C901C80ED91EEA1EFB1E498128
:1012A0005A816B817C818789803111F188EF9FEFB2
:1012B000AFEFBFE0481759076A077B0798F2F501BF
:1012C000C082D182E282F38281E00F900F900F9072
:1012D0000F90DF91CF911F910F91FF90EF90DF90D2
:1012E000CF90BF90AF907F906F905F904F90089598
:1012F00088EF9FEFA0E0B0E0DDCFCF93DF93FC015C
:101300002581222321F080E0DF91CF910895EC0127
:101310008091F904803159F582E08583178A108E17
:10132000118E128E8091FA049091FB04B0E0A0E03F
:1013300025E0880F991FAA1FBB1F2A95D1F7838B21
:10134000948BA58BB68B82EE94E09C8F8B8F81E083
:101350008C831E821F82188619861A861B861C861D
:101360001D861E861F86188A198A1A8ACDCF80325A
:1013700051F683E085834091FC045091FD04609117
:10138000FE047091FF04478B508F618F728F9F0115
:101390002D5E3F4F82EE94E00E9412098111D3CF5F
:1013A000B2CF8F929F92AF92BF92CF92DF92EF9285
:1013B000FF920F931F93CF93DF93EC018D818111E7
:1013C0000EC080E0DF91CF911F910F91FF90EF90C1
:1013D000DF90CF90BF90AF909F908F9008950B8932
:1013E0001C892D893E89041715072607370748F3FE
:1013F0004A015B01823031F48A869B86AC86BD86C9
:1014000081E0E0CF81149104A104B10449F41E826B
:101410001F82188619861A861B861C861D86F0CFA9
:101420000A851B852C853D85EB8DFC8D858590E09F
:101430000996B901A8014150510961097109082EA5
:1014400004C076956795579547950A94D2F775012C
:101450006401E1E0CE1AD108E108F10804C0F69475
:10146000E794D794C7948A95D2F7C416D506E606B2
:10147000F70620F0012B022B032B11F58F89988D95
:10148000A98DBA8D8E839F83A887B9878E010A5F45
:101490001F4FC114D104E104F10409F4ADCF4E8112
:1014A0005F816885798598018B8D9C8D0E9491085C
:1014B00091E0C91AD108E108F1088111EACF81CF82
:1014C000C41AD50AE60AF70AE1CF3F924F925F921B
:1014D0006F927F928F929F92AF92BF92CF92DF9244
:1014E000EF92FF920F931F93CF93DF93CDB7DEB7A9
:1014F0002C970FB6F894DEBF0FBECDBF5C01DC01A8
:101500005B968D909C905C9716964D905D906D903B
:101510007C901997411451046104710409F468C066
:10152000BFEF4B1A5B0A6B0A7B0A312CF4018185F1
:101530009285A385B4859C01AD012F5F3F4F4F4F2E
:101540005F4F29873A874B875C87730162011D8251
:101550001E821F821886F40181859285A385B48539
:101560002D813E814F815885281739074A075B072F
:1015700008F056C089859A85AB85BC858C159D057C
:10158000AE05BF0550F482E0C82ED12CE12CF12C21
:1015900092E0492E512C612C712C9E012F5F3F4F00
:1015A000B701A601C4010E9491088823C9F189816D
:1015B0009A81AB81BC81892B8A2B8B2B09F1260167
:1015C00037019FEF491A590A690A790A2D813E812C
:1015D0004F8158852F5F3F4F4F4F5F4F2D833E8385
:1015E0004F8358873FEFC31AD30AE30AF30AB3CFF6
:1015F000F40140805180628073803324339496CF0D
:10160000C414D504E604F70409F70FEF1FEF2FEF1A
:101610003FE0B701A601C4010E94EF07811119C084
:1016200080E02C960FB6F894DEBF0FBECDBFDF91E1
:10163000CF911F910F91FF90EF90DF90CF90BF90CF
:10164000AF909F908F907F906F905F904F903F9062
:101650000895D50116964D915D916D917C911997E4
:10166000411551056105710539F097018601C401E5
:101670000E94EF078823A1F2D5011696CD92DD9244
:10168000ED92FC921997332051F0D701C6010196D3
:10169000A11DB11DF40180839183A283B383F50161
:1016A0008789908DA18DB28D892B8A2B8B2B39F454
:1016B0008481C78AD08EE18EF28E80688483F501A2
:1016C00084818062848381E0ACCF2F923F924F92DD
:1016D0005F926F927F928F929F92AF92BF92CF92C2
:1016E000DF92EF92FF920F931F93CF93DF93EC0162
:1016F0005B012A018D81811115C08FEF9FEFDF9172
:10170000CF911F910F91FF90EF90DF90CF90BF90FE
:10171000AF909F908F907F906F905F904F903F9091
:101720002F9008958C8180FFE8CF0B891C892D892B
:101730003E894A855B856C857D85C201B0E0A0E06D
:1017400068017901C41AD50AE60AF70AC816D9064B
:10175000EA06FB0618F42801441A550A42011E0144
:1017600026E0220E311C8114910409F4B3C04A858D
:101770005B856C857D856A0181E0D8228B8D9C8D8F
:101780008A019B01E9E03695279517950795EA951B
:10179000D1F7ED81E230E1F5FC01628D738D848D2E
:1017A000958D600F711F821F931F612C22E0722E96
:1017B0006C187D088614970408F434012C8126FDEA
:1017C00004C06114F2E07F0671F4009100011091F1
:1017D0000101209102013091030106171707280724
:1017E000390709F053C040E00E946306882309F4DA
:1017F00084CFC601895C9D4FD5019C01260D371D04
:10180000FC012E173F0709F460C041914D93F9CFB9
:10181000FC0174807A947022C114D10471F47110A7
:101820000CC0452B462B472B39F58F89988DA98DF8
:10183000BA8D8E839F83A887B987EB8DFC8D6E81CF
:101840007F81888599856250710981099109258573
:1018500004C0660F771F881F991F2A95D2F7068547
:10186000178520893189600F711F821F931F670DB3
:10187000711D811D911D99CF4E815F81688579858C
:1018800091010E9491088111D8CF37CF7501830152
:101890009601AB01BC018091AE019091AF010E9415
:1018A0000405882309F429CFA60CB71C8A859B85DB
:1018B000AC85BD85860D971DA11DB11D8A879B87AF
:1018C000AC87BD87861897084ECF281B390BA20E10
:1018D000B31EECCFC20113CF1F93CF93DF93FC0154
:1018E0002581222371F1162FEC01848187FF1EC010
:1018F000CF010E94AD06FC01892B19F18D81823048
:1019000040F48B899C89AD89BE89848F958FA68F81
:10191000B78F8F89988D938F828F8F89988DA98D9E
:10192000BA8DB58BA48B8C818F778C83111103C0FA
:101930008C818F7E8C83812FDF91CF911F910C94AE
:10194000380680E0DF91CF911F910895FF920F93A9
:101950001F93CF93DF93EC018D81813041F090E0B4
:1019600080E0DF91CF911F910F91FF9008958C81BE
:1019700081FFF5CF82FD1BC00091AE011091AF0138
:10198000C8010E9491040E947004F82EC8010E94B0
:101990005E048FEFF812E3CF8C8185FF1BC060E0FF
:1019A000CE010E946C0C8C818F7D8C83D8CF4B89AB
:1019B0005C896D897E898A859B85AC85BD85841708
:1019C0009507A607B707C1F2CE010E94D109811180
:1019D000D3CFC5CF40918C0150918D0160918E0184
:1019E00070918F01452B462B472B21F080E00E9400
:1019F0001406B5CF80618C832A853B85317080E0E9
:101A000092E0821B930BADCFCF93DF93EC0161E0AB
:101A10000E946C0C882311F01D8281E0DF91CF9130
:101A200008958F929F92AF92BF92CF92DF92EF92E2
:101A3000FF92CF93DF93EC010E94650A81110CC0E5
:101A400080E0DF91CF91FF90EF90DF90CF90BF903B
:101A5000AF909F908F900895EB8DFC8DCE80DF80AE
:101A6000E884F98482E0C81AD108E108F108858584
:101A700004C0CC0CDD1CEE1CFF1C8A95D2F78685B9
:101A80009785A089B189C80ED91EEA1EFB1E8481E4
:101A900046015701880E911CA11CB11CC814D90421
:101AA000EA04FB04F9F081E0881A9108A108B10862
:101AB00081E00E943806882319F2E7E3F2E01192F0
:101AC00084E0E733F807D9F7809200019092010192
:101AD000A0920201B092030180918B0181608093FA
:101AE0008B01DCCFEB8DFC8D258580E092E0A0E0C2
:101AF000B0E004C0880F991FAA1FBB1F2A95D2F718
:101B00004B895C896D897E89840F951FA61FB71F3D
:101B10008B8B9C8BAD8BBE8B81E093CF2F923F92B2
:101B20004F925F926F927F928F929F92AF92BF92ED
:101B3000CF92DF92EF92FF920F931F93CF93DF9399
:101B400000D000D01F92CDB7DEB77C015B01342EF0
:101B50005D83DC0115968C911597813009F0CEC01C
:101B600014962C9021FECAC022FCB4C0C32CDD8088
:101B700022947FE027222094B22DB1702B2ED70122
:101B80001A964D915D916D917C911D97C114D10470
:101B900009F428C15B968D919C915C97FC0174803F
:101BA0007A948A019B0169E03695279517950795E8
:101BB0006A95D1F770228A011170711020C0011549
:101BC0001105E9F416964D915D916D917C911997EF
:101BD000411551056105710509F099C057968D9120
:101BE0009D910D90BC91A02D0097A105B10509F024
:101BF000B0C0C7010E94650A882309F47FC080E055
:101C000092E0801B910B46018C159D0508F44C0158
:101C1000D7015B964D915C915C9716968D919D9145
:101C20000D90BC91A02D0297A109B109FA0125855B
:101C300004C0880F991FAA1FBB1F2A95D2F746859B
:101C4000578560897189840F951FA61FB71F9C0156
:101C5000AD01270D311D411D511D29013A0181148E
:101C600032E0930609F07BC0809100019091010160
:101C7000A0910201B091030184159505A605B70551
:101C800059F48FEF9FEFDC018093000190930101E5
:101C9000A0930201B0930301022D9501B301A201AB
:101CA0008091AE019091AF010E94A605882331F189
:101CB0009EEFB91AC818D908F70182859385A485C3
:101CC000B585880D991DA11DB11D82879387A487B5
:101CD000B58755CFF701438954896589768982850F
:101CE0009385A485B585481759076A077B0709F4CA
:101CF0003DCFC7010E94D109811138CF81E090E02A
:101D0000D70113969C938E93129780E007C09E0193
:101D10002F5F3F4F0E949108811102C090E079C06F
:101D200089819A81AB81BC81F701238D348DF901C2
:101D3000278948EF5FEF60E070E0203121F048EF45
:101D40005FEF6FEF7FE084179507A607B70708F0EE
:101D500050CFF70186839783A087B18750CF0115B5
:101D6000110599F5D7011A964D915D916D917C9170
:101D70001D9753968D919D910D90BC91A02D481764
:101D800059076A077B0708F181E00E94380688231B
:101D900009F4B4CF40920001509201016092020117
:101DA0007092030180918B01816080938B01C80147
:101DB000895C9D4FD5019C01280D391DFC012E1712
:101DC0003F0759F04D914193FACF41E0C301B20171
:101DD0000E9463068111EBCF91CF281B390BA20E15
:101DE000B31E68CFF70183899489A589B6898417C2
:101DF0009507A607B70738F48481438B548B658B0E
:101E0000768B80688483F701848183FD1AC0832DDB
:101E10009D810F900F900F900F900F90DF91CF91B9
:101E20001F910F91FF90EF90DF90CF90BF90AF90F8
:101E30009F908F907F906F905F904F903F902F90EA
:101E4000089561E0C7010E946C0C882309F456CF05
:101E5000DECFCF93DF931F92CDB7DEB7698341E02A
:101E600050E0BE016F5F7F4F0E948E0D0F90DF919B
:101E7000CF910895FC01DB0112968D919C911397EF
:101E80009383828386E391E09183808314968C917F
:101E90001497848315968C911597858316964D918A
:101EA0005D916D917C911997468357836087718707
:101EB0001A964D915D916D917C911D974287538744
:101EC000648775871E964D915D916D917C915197B8
:101ED00046875787608B718B52968C915297828B75
:101EE00053964D915D916D917C915697438B548B98
:101EF000658B768B57964D915D916D917C915A973C
:101F0000478B508F618F728F5B968D919C91948FD0
:101F1000838F0895DC015996ED91FC91309721F063
:101F200081E09581911101C080E00895FC01818DCF
:101F3000928D009729F00E94D10991E0811101C092
:101F400090E0892F0895FC01818D928D009719F002
:101F500061E00C946C0C0895DC015996ED91FC91B4
:101F60003097B9F083899489A589B68942855385CC
:101F700064857585841B950BA60BB70B811520E82E
:101F80009207A105B10538F08FEF9FE7A0E0B0E020
:101F9000089590E080E00895DC0159968D919C9120
:101FA000009739F0DC01ED91FC910480F581E02D82
:101FB000099490E080E00895CF93DF93EC01E98DE0
:101FC000FA8D309749F481E090E09B838A8390E01A
:101FD00080E0DF91CF91089513821282898D9A8DCE
:101FE0000E948E0DE98DFA8D22813381232B59F7C2
:101FF000F0CFCF93DF931F92CDB7DEB76983DC01BB
:10200000ED91FC910280F381E02D41E050E0BE01B2
:102010006F5F7F4F09950F90DF91CF910895CF9318
:10202000DF931F92CDB7DEB741E050E0BE016F5F96
:102030007F4F0E94650B019731F4898190E00F90EA
:10204000DF91CF9108958FEF9FEFF9CFFC01818D44
:10205000928D009711F00C940F108FEF9FEF089561
:102060000F931F93CF93DF93EC010E9423036887A4
:1020700079878A879B87CE010E94261097FF15C01B
:102080000E942303088519852A853B85601B710BF7
:10209000820B930B0C811D812E813F81601771078C
:1020A0008207930740F38FEF9FEFDF91CF911F914E
:1020B0000F9108950F931F93CF93DF93EC01898DB8
:1020C0009A8D10E000E0009799F00E940F108C01AB
:1020D0000F3F100769F0898D9A8DFC014285538569
:1020E0006485758541505109610971090E94D109C2
:1020F000C801DF91CF911F910F910895CF92DF9288
:10210000EF92FF92CF93DF93DC01ED91FC9130E0F1
:1021100020E080E0C12CD12C7601C394B701A60148
:10212000022E04C0440F551F661F771F0A94D2F772
:10213000D9011A96EF0102C0D595C795AA95E2F785
:10214000C0FF0DC0842B2F5F3F4F2530310531F785
:10215000DF91CF91FF90EF90DF90CF900895409561
:102160008423F1CFFF920F931F93CF93DF93EC0162
:1021700000E0F12C8C8D0E949802FE0110E021916C
:1021800031912D5F3F4F28173907F4F41F5F1E3040
:10219000B1F70F5F1F1100E061E070E080E090E0B8
:1021A0000E94D202F12E033029F78FEF8E8F8D8D92
:1021B0008130C1F0A0F08230D1F08E8DDF91CF91CF
:1021C0001F910F91FF900895143019F728853985D4
:1021D0002A50310982179307E4F615E0DACF81E03F
:1021E0008D8FEBCF82E01E30D9F780E0F9CF1E3023
:1021F00011F41D8EE2CF1E8FE0CFCF9385E495E0E2
:102200000E94B210C82F84E695E0CF3F09F50E94E6
:10221000B2108F3F69F410924105809140058F3FC5
:1022200029F00E9441028FEF80934005CF910895DD
:10223000CEE0C80F10924105CF3F79F38091400561
:102240008C17A1F3C09340058C2FCF910C94710291
:102250000E94B210825FC63051F48B3121F481E0CC
:1022600080934105EBCF853171F482E0F9CFC11144
:1022700004C0853141F483E0F3CFC73021F48531C8
:1022800011F484E0EDCF10924105D8CF8F929F9248
:10229000AF92BF92CF92DF92EF92FF920F931F9374
:1022A000CF93DF9300D000D0CDB7DEB7FC0185819E
:1022B000813091F080E00F900F900F900F90DF91A0
:1022C000CF911F910F91FF90EF90DF90CF90BF9033
:1022D000AF909F908F900895848181FFEBCF838989
:1022E0009489A589B689892B8A2B8B2B09F45FC029
:1022F0007F0140E050E0BA01CF010E94D10988235C
:10230000C9F2F701C38CD48C8788908CA18CB28CD5
:1023100082E090E0A0E0B0E0F60180839183A283A8
:10232000B3839E012F5F3F4FB501A401C6010E94F8
:102330009108882309F4BECF00E010E09801B501B0
:10234000A401C6010E94EF07882309F4B3CF898056
:102350009A80AB80BC80F6018789803119F188EFC3
:102360009FEFAFEFBFE088169906AA06BB06C8F23A
:10237000F701178A108E118E128E138A148A158A0D
:10238000168A84818068848361E0C7010E946C0C96
:10239000882309F48FCF40E050E0BA01C7010E94C2
:1023A000D10989CF88EF9FEFA0E0B0E0DCCF81E0DA
:1023B00082CFCF92DF92EF92FF921F93CF93DF9362
:1023C000EC0180E2689FF0011124E95CFD4F9385E8
:1023D000917161F0842F827449F080E0DF91CF9198
:1023E0001F91FF90EF90DF90CF900895142F6A8B8C
:1023F0008091000190910101A0910201B09103012F
:102400008E879F87A88BB98BC488D588F12CE12C47
:102410007601DD24CC24CF8AD88EE98EFA8E828D87
:10242000938DB0E0A0E0AC01BD014C295D296E297F
:102430007F294F8B588F698F7A8F83858871B1F48C
:10244000848D958DA68DB78D8B8B9C8BAD8BBE8B24
:1024500081E08D831F701C831E821F82188619865F
:102460001A861B861C861D8681E0B8CF803109F054
:10247000B4CF9E012D5E3F4F8B8D9C8D0E94120923
:10248000882309F4AACF84E0E4CFFC010190002066
:10249000E9F73197AF01481B590BBC0187E394E082
:1024A0000C943003CF93DF930E941D04EC0180E570
:1024B00091E00E9445128C0F9D1FDF91CF910895EE
:1024C0008F929F92AF92BF920F931F93CF93DF9300
:1024D000CDB7DEB7A1970FB6F894DEBF0FBECDBF64
:1024E00019A2423008F44AE08E010F5D1F4F842E7E
:1024F000912CB12CA12CA50194010E94BF2EE62F96
:10250000B901CA01EA30F4F4E05DD801EE938D011F
:10251000232B242B252B79F790E080E0109719F0DE
:10252000CD010E944512A1960FB6F894DEBF0FBEF2
:10253000CDBFDF91CF911F910F91BF90AF909F9032
:102540008F900895E95CE1CFCF92DF92EF92FF92F6
:10255000CF93DF936B017C016DE287E394E00E94EF
:10256000D003EC0166277727CB016C197D098E0912
:102570009F094AE00E9460128C0F9D1FDF91CF914E
:10258000FF90EF90DF90CF900895CF93DF93BC0141
:10259000990F880B990B4AE00E946012EC0180E5CC
:1025A00091E00E9445128C0F9D1FDF91CF910895FD
:1025B000EF92FF920F931F93CF93DF937C018C01D7
:1025C000D0E0C0E0CE010E94382EF80181938F0147
:1025D0002196C032D105B1F7C701DF91CF911F918C
:1025E0000F91FF90EF900895CF93DF93CDB7DEB7B3
:1025F000C056D1090FB6F894DEBF0FBECDBFCE01D5
:102600008F5B9F4F0E94D81225968CAD9DADAEADCD
:10261000BFAD2597833D9146A942B10521F08BE1DD
:1026200093E00E94521280E2FE01EF5BFF4FDE0159
:10263000119601900D928A95E1F781E080936105F2
:10264000109262058FEF80936305CE010596E5E455
:10265000F5E09E012F5D3F4FDC014D915D91CD0175
:1026600041935193A217B307B9F720E2FE01EF5B44
:10267000FF4FDE01919601900D922A95E1F722E03D
:1026800020938005109281052FEF20938205FE0193
:10269000B596A4E6B5E08096219131912D933D93B6
:1026A000E817F907C9F70E944102C05ADF4F0FB679
:1026B000F894DEBF0FBECDBFDF91CF91089520917A
:1026C0003E0530913F05DC0114964D915C911597C4
:1026D00024173507D9F4E0913A05F0913B056D9147
:1026E0007C913097D1F06115710599F4232BC1F0DD
:1026F000808190E008C0232B99F0FB01808190E05D
:1027000091958195910921E0892B09F020E0822F94
:102710000895CF010E941D31F6CF6115710559F75B
:1027200021E0F5CF0F931F93CF93DF938C01EB0143
:10273000FC01808191810097E1F0688179816115C8
:102740007105A9F0428153812C813D8142175307C5
:1027500070F00E9426318C819D81F80195838483DD
:102760001D821C82DF91CF911F910F9108950E94CD
:10277000B62F88819981F801918380838A819B811A
:10278000938382838C819D819583848319821882AF
:102790001B821A82E5CFCF93DF93EC018881998168
:1027A000009711F00E94B62F198218821D821C8298
:1027B0001B821A82DF91CF910895FC018081918163
:1027C000009711F00C94B62F0895CF93DF93EC018E
:1027D000898D9A8D009741F00E94040D898D9A8D04
:1027E0000E94B62F1A8E198EDF91CF910895109204
:1027F000360280916F008E7D80936F008FE195E0AF
:102800000E94E5138091800090E0880F892F881F37
:10281000990B019789F5609188007091890050E0CB
:1028200040E020910006309101064217530720F541
:10283000CB01841B950B97FD1CC02817390708F4A2
:10284000C9019093820180938101909389008093C4
:102850008800225331098AE090E0E0918400F091F1
:102860008500E217F307C8F30197B9F74F5F5F4F91
:10287000D8CF90E080E0E5CF80910801806280931E
:102880000801109281001092800008951092360283
:10289000EFE6F0E080818E7D80838FE195E00C94FF
:1028A000E5130F931F93CF93DF93EC0188819981F8
:1028B000009759F02A813B812617370730F081E0D5
:1028C000DF91CF911F910F9108958B016F5F7F4F23
:1028D0000E943F30009759F0998388831B830A83B5
:1028E0002C813D81232B59F7FC011082E8CF80E039
:1028F000E7CFEF92FF920F931F93CF93DF93EC01FB
:102900007B01CB010E94E42D0097A9F00C811D8171
:10291000080F191FB801CE010E945114882399F0A5
:10292000288139818C819D81B701820F931F0E947C
:10293000DD2D1D830C83CE01DF91CF911F910F916F
:10294000FF90EF900895CE010E94CB13F4CFEF9249
:10295000FF920F931F93CF93DF936115710541F49D
:1029600080E0DF91CF911F910F91FF90EF9008953C
:1029700041155105B1F07B01EC010C811D81040F63
:10298000151FB8010E945114882351F32881398101
:102990008C819D81B701820F931F0E9426311D8378
:1029A0000C8381E0DECFCF93DF93EC01FB01448108
:1029B0005581608171810E94A714811103C0CE01ED
:1029C0000E94CB13CE01DF91CF910895CF93DF9377
:1029D00000D0CDB7DEB769831A8241E050E0BE0176
:1029E0006F5F7F4F0E94A7140F900F90DF91CF91E0
:1029F0000895EF92FF920F931F93CF93DF93EC0113
:102A00008B01CB010E94E42D7C01BC01CE010E9410
:102A1000511481110BC0CE010E94CB13CE01DF9166
:102A2000CF911F910F91FF90EF900895FD82EC825E
:102A3000B801888199810E94DD2DF0CFFC011182BF
:102A4000108213821282158214820C94F914EF9270
:102A5000FF920F931F93CF93DF93EC017B018A01C9
:102A6000BA010E94511481110BC0CE010E94CB13F8
:102A7000CE01DF91CF911F910F91FF90EF900895BC
:102A80001D830C83B701888199810E942631F0CF84
:102A9000FB0101900020E9F73197AF01461B570B6E
:102AA0000C9427150F931F93CF93DF93CDB7DEB709
:102AB00029970FB6F894DEBF0FBECDBF8C01862FCD
:102AC000F8011182108213821282158214824AE068
:102AD000BE016F5F7F4F90E00E94022EBE016F5FCC
:102AE0007F4FC8010E94481529960FB6F894DEBFA3
:102AF0000FBECDBFDF91CF911F910F91089562E579
:102B000071E08AE395E00E94481587E394E00E9413
:102B10008E0318161906CCF787E394E00E946C0325
:102B20008A3041F08D3031F0682F8AE395E00E94C1
:102B3000E614EBCF80913E0590913F05892B29F358
:102B4000E0913A05F0913B0580818823F1F20895E8
:102B5000FB01DC0111961C921E9213961C921E9290
:102B6000129715961C921E9214978617970749F094
:102B7000608171816115710521F0448155810C944A
:102B800027150895FC01118210821382128215828A
:102B900014826115710551F0FB0101900020E9F7E5
:102BA0003197AF01461B570B0C94271508952F92B0
:102BB0003F924F925F926F927F928F929F92AF92CD
:102BC000BF92CF92DF92EF92FF920F931F93CF931A
:102BD000DF93CDB7DEB765970FB6F894DEBF0FBEB3
:102BE000CDBF7C014B0164E173E0CE010E960E94E3
:102BF0001E1500E080E3D82E202F30E0F7018481FD
:102C0000958128173907A8F1B7E04B2E6624639405
:102C1000712C6C0E7D1EF7E06F0E711C4A895B896A
:102C200037E04730510508F4342F6E857F85FE016B
:102C3000319690E080E0831708F0E4C08417950790
:102C400008F0DCC06115710509F4D8C0DB01A80FDC
:102C5000B91F2C91A0EDA20FAA3008F4D1C0AFEBA0
:102C6000A20FA63018F4A9EC5A2E520E51920196DA
:102C7000E2CF8081918110E0009721F0820F931FB5
:102C8000FC01108162E571E0CE0108960E94C21538
:102C9000EFEBE10FEA3108F096C00E2E000CFF0BAF
:102CA000EC5AF94E0C94002F6E1698169B169E1631
:102CB000A116A416A716AA16AD16B016B316B61608
:102CC000B916BC16BF16C216C516C816CB16CE1638
:102CD000D116D416D716DA16DD16E01660E173E0C9
:102CE000CE0108960E94F914BE01685F7F4FCE01A5
:102CF00001960E94A81560E3CE0101960E94E61499
:102D0000811104C0CE0101960E94CB134D815E81DA
:102D100069817A81CE010E960E94A714CE01019698
:102D20000E94DD13CE0108960E94DD130F5F64CF71
:102D30006DE073E0D5CF69E073E0D2CF65E073E07A
:102D4000CFCF61E073E0CCCF6DEF72E0C9CF69EF18
:102D500072E0C6CF65EF72E0C3CF63EF72E0C0CF21
:102D60006FEE72E0BDCF6BEE72E0BACF68EE72E04C
:102D7000B7CF62EE72E0B4CF6DED72E0B1CF69ED26
:102D800072E0AECF65ED72E0ABCF60ED72E0A8CF40
:102D90006CEC72E0A5CF69EC72E0A2CF65EC72E05A
:102DA0009FCF61EC72E09CCF6DEB72E099CF67EB47
:102DB00072E096CF62EB72E093CF6EEA72E090CF52
:102DC00069EA72E08DCF1A8219821C821B821E82F0
:102DD0001D82DC8A1D8ABE016C5E7F4FCE0101968A
:102DE0000E944815BE016F5F7F4FCE0108960E947A
:102DF0009213CE0101960E94DD1376CF20E02ACFF8
:102E00005A2E34CFDE01119660E0ED91E150EF30A3
:102E1000A8F4F0E0E25FF84E0C94002F1D171D1788
:102E200060171D176017601762171D17601760176E
:102E3000621760176217621764176F5FA615B705F0
:102E400021F770E0C4010E94AB2E262E312C3214E3
:102E5000E8F5CE0101965C01F12CE12CF501C19061
:102E60005F0110E000E0D12CC601002E02C0959554
:102E700087950A94E2F780FF15C0409EC001419EED
:102E8000900D11248E0D9F1D880F991F8D579A4FFD
:102E90000E947E100E94710261E070E080E090E08C
:102EA0000E94D2020F5F1F4F04301105E9F6FFEFB9
:102EB000EF1AFF0A87E0E816F10481F63394C7CFD2
:102EC0006E5FBCCF6D5FBACF6C5FB8CF0A891B89CC
:102ED00002301105E8F4CE010E960E94DD136596CE
:102EE0000FB6F894DEBF0FBECDBFDF91CF911F911B
:102EF0000F91FF90EF90DF90CF90BF90AF909F9099
:102F00008F907F906F905F904F903F902F9008959B
:102F100062E571E0CE0108960E94C2158A899B89FC
:102F200082309105D8F08017910708F48C01EE8566
:102F3000FF85E00FF11FF08010826E857F856F5F47
:102F40007F4FCE01089661157105A1F00E944815CA
:102F50008E859F85080F191FF801F082BE01685FFA
:102F60007F4FCE010E960E949213CE0108960E94CA
:102F7000DD1354CE0E94CB13EBCFEF92FF920F9351
:102F80001F93CF93DF93EC017B01042F62E571E087
:102F90000E94C215C7010E943010002E000C110BB8
:102FA00097FD0BC00817190741F0682FCE010E944A
:102FB000E614C7010E943010F3CFCE01DF91CF910C
:102FC0001F910F91FF90EF900895EF92FF921F9342
:102FD000CF93DF93CDB7DEB7A0970FB6F894DEBFDF
:102FE0000FBECDBF7C01162F642F8091A2018823D4
:102FF00009F468C088E0EFE0F1E0DE01119601908D
:103000000D928A95E1F7CE014B960E945215E12F61
:10301000F0E0EE0FFF1F81E090E08C0F9D1FE80FA6
:10302000F91F6081718144960E94C2156AE971E0BE
:10303000CE0109960E94C215BE01675F7F4FCE0187
:103040000F960E94A81541E050E06DE771E0CE01B7
:103050000F960E94A714811104C0CE010F960E9402
:10306000CB13BE016B5E7F4FCE010F960E94D3142F
:10307000BE01655E7F4F0E94D31468E171E00E943B
:103080007914BC01C7010E94A815CE010F960E94B9
:10309000DD13CE0109960E94DD13CE0145960E94F4
:1030A000DD13CE014B960E94DD13C701A0960FB62B
:1030B000F894DEBF0FBECDBFDF91CF911F91FF907F
:1030C000EF900895CE010F960E9452156AE971E0C3
:1030D000CE0101960E94C215BE016F5F7F4FCE01E7
:1030E00009960E94A81542E050E063E571E0CE0128
:1030F00009960E94A714811104C0CE0109960E946E
:10310000CB13BE01615F7F4FCE0109960E94D3149D
:1031100063E171E00E947914BC01C7010E94A81507
:10312000CE0109960E94DD13CE0101960E94DD13A7
:10313000CE010F96B8CF9F92AF92BF92CF92DF92FF
:10314000EF92FF920F931F93CF93DF93CDB7DEB72C
:103150002B970FB6F894DEBF0FBECDBF7C01FC01EC
:103160008581811115C0FE013196CE010C966F014B
:1031700030E231938E179F07E1F7DA0130E087E004
:103180009D91B92E992329F19E3239F48A3011F498
:1031900080E0D3C038E08AE0F3CFEDE1F1E0449184
:1031A000442321F031969413FACFF2CF831780F3A2
:1031B0004FED490F4E3560F74FE9490F4A3118F48A
:1031C00040EEB42EB90EF601E30FF11DB0823F5F61
:1031D000D7CF89818032E1F2A22E8B01FB01838D52
:1031E000948DF701948F838FFB01168217821086CE
:1031F00011861286138614861586F80182859385BA
:10320000A485B5854389548965897689841795078E
:10321000A607B70708F04CC025E0B695A795979587
:1032200087952A95D1F7F82FFF709F2EF801858199
:10323000823008F4ADCFC8010E940F1097FDA8CFCF
:10324000F80182859385A485B5854F96A11DB11D92
:1032500082879387A487B587F0E29F9EB0011124EF
:10326000695C7D4F6115710509F492CFFB01808186
:10327000882341F0853E09F04EC0BB2029F0BB24D5
:10328000B394BBCFB1100EC0F701928A80910001B8
:1032900090910101A0910201B09103018687978767
:1032A000A08BB18BFB0180818111E9CFBB24B3944A
:1032B0008A2D8271823109F06BCFBB2009F44FC097
:1032C000C7010E94AD06009709F462CF20E2FC011D
:1032D00011922A95E9F72BE0F601DC0101900D929D
:1032E0002A95E1F721E238E2FC01318B208B40E0A6
:1032F00058E057874687338B228B318F208F578B2F
:10330000468B81E00E943806882309F441CF4A2D7C
:10331000F70162890FC04BE050E0C6010E94FC300B
:10332000892B09F06ACF8A2D80734A2D692D80334D
:1033300009F42ECFC7010E94D9112B960FB6F8942D
:10334000DEBF0FBECDBFDF91CF911F910F91FF90D8
:10335000EF90DF90CF90BF90AF909F900895F801CD
:103360008581823009F414CFC8010E94110D882391
:1033700009F40ECFF701128A87E392E0A7CF5F929C
:103380006F927F928F929F92AF92BF92CF92DF9275
:10339000EF92FF920F931F93CF93DF93CDB7DEB7DA
:1033A000C754D1090FB6F894DEBF0FBECDBF5C0184
:1033B0003B0119A218A286E391E09F8F8E8F1BA27A
:1033C0001C821B829A8389831E8210E000E06E01BA
:1033D0008EE1C80ED11C80E0E82E85E0F82EF501C4
:1033E000E00FF11F80818F3211F40F5F1F4FD50165
:1033F000A00FB11FFE01FB9690E080E04F012D91E0
:103400002F3249F0222339F00F5F1F4F019621938D
:103410008C309105A1F7880D991DFC011082F501F2
:10342000E00FF11F80818F3211F40F5F1F4FF50104
:10343000E00FF11F508041E0511040E030E020E00B
:10344000B401C701F3010995811121C0F0E0EF1625
:10345000F5E0FF06C1F480E0C95BDF4F0FB6F894DA
:10346000DEBF0FBECDBFDF91CF911F910F91FF90B7
:10347000EF90DF90CF90BF90AF909F908F907F9014
:103480006F905F900895C7010E94040DE4CF55200E
:1034900091F021E0A401B701C6010E949B18982E6B
:1034A00080E0E81685E0F80681F0C7010E94040D6F
:1034B000911010C0D0CF90E0E91695E0F90619F010
:1034C000C7010E94040D81E0C7CF992021F2FE01BF
:1034D00031967F019E2D8F2D7601C92ED82E7FCF5C
:1034E00064E77AE10C94BF191F93CF93DF93CDB7B4
:1034F000DEB76D970FB6F894DEBF0FBECDBFAB0140
:103500001C821B8226E331E03A8329831E8221E05C
:10351000BC01CE0101960E949B1811E081110CC0E4
:1035200010E0812F6D960FB6F894DEBF0FBECDBFB1
:10353000DF91CF911F910895CE0101960E94040D55
:10354000F0CFCF93DF93CDB7DEB76D970FB6F8947A
:10355000DEBF0FBECDBF442399F1AB01BC011C827D
:103560001B8286E391E09A8389831E8222E0CE014A
:1035700001960E949B1881110EC090E081E091118C
:1035800001C080E06D960FB6F894DEBF0FBECDBFD0
:10359000DF91CF910895CE0101960E9446118823B4
:1035A00061F3CE0101960E94AD06009731F325EE3E
:1035B000FC0120831E8281E00E943806982FDECF16
:1035C00081E0E0CF8F929F92AF92BF92EF92FF92F5
:1035D0000F931F93CF93DF93CDB7DEB7ED970FB661
:1035E000F894DEBF0FBECDBF8C017B011CA21BA2D5
:1035F00086E391E09AA389A31EA2C8010E94741ACF
:103600008111A0C023E3A701B801CE0181960E94D9
:103610009B18811116C090E081E0911101C080E0FB
:10362000ED960FB6F894DEBF0FBECDBFDF91CF9100
:103630001F910F91FF90EF90BF90AF909F908F9050
:10364000089581E08DA384E08EA3CE0181960E942F
:10365000110D882301F361E0CE0181960E946C0C6C
:103660008823C9F2CE0181960E94AD06FC01892B08
:1036700091F280E1838780E2DE01119601900D9244
:103680008A95E1F7FE013296CE010C9620E2219355
:10369000E817F907E1F78EE2F82EF982ECADFDADFF
:1036A00068AD79AD8AAD9BAD625071098109910910
:1036B000258504C0660F771F881F991F2A95D2F7AA
:1036C00086849784A088B188680D791D8A1D9B1D0A
:1036D00041E00E946306882309F49DCF80E2FE0149
:1036E0003196A7E3B2E001900D928A95E1F7FA8254
:1036F000F80185818250823000F14789508D618DBB
:10370000728DCA019B013E8B2D8B9C8F8B8F80E22B
:10371000FE013196A7E5B2E001900D928A95E1F79E
:1037200080E490E0A0E0B0E08BA79CA7ADA7BEA787
:1037300081E00E943806982F6FCF90E080E030E063
:1037400020E0E1CF81E06CCFEF92FF920F931F93C7
:10375000CF93DF93EC017B018A011B821A8288EEF2
:1037600093E0A0E0B0E08C839D83AE83BF8382E4CE
:1037700091E0998388838DE190E00E941A2F9A8FBF
:10378000898F009779F02DE1F701DC0101900D920E
:103790002A95E1F74CE050E0B801CE010C960E946A
:1037A0002D31188EDF91CF911F910F91FF90EF90E7
:1037B00008952F923F924F925F926F927F928F92D5
:1037C0009F92AF92BF92CF92DF92EF92FF920F93B0
:1037D0001F93CF93DF93CDB7DEB7C756D1090FB68E
:1037E000F894DEBF0FBECDBF5C013B01A6964FAF84
:1037F000A69719A218A286E391E09F8F8E8F1BA235
:103800001C821B829A8389831E824E018EE1880E60
:10381000911CC4010E947D0963018E010F5F1F4F3F
:10382000240118016FE270E0C6010E941231009776
:1038300009F459C0F60120812F3271F4FFEFCF1A3D
:10384000DF0A902F812F8201492E582E942D852D2D
:103850002801092F182FE6CF8C198D3008F08CE045
:10386000E82EF12CA701B601CE01885A9F4F0E9485
:103870002D31E8E5F0E0EC0FFD1FEE0DFF1D10828D
:10388000C8010E94040D21E0AE01485A5F4FB20109
:10389000C8010E949B18811120C01EAE1DAE86E398
:1038A00091E09CAF8BAF21961FAE2197A896EEAD0D
:1038B000FFADA8976E0E7F1EF3018081811120C09D
:1038C000BE01655C7F4FC1010E943A0F4DE751E098
:1038D000B101C5010E94A41B31C0CE0CDF1CC20186
:1038E0000E94040DB3CFC60186199709A8969FAF11
:1038F0008EAFA897B201CE01CB960E943A0FD6CFD9
:1039000019A218A286E391E09F8F8E8F1BA22196A9
:103910008FAD219781112DC0F5011382128288EE9F
:1039200093E0A0E0B0E084839583A683B78382E42C
:1039300091E091838083128E118E1486C501C9593E
:10394000DF4F0FB6F894DEBF0FBECDBFDF91CF9132
:103950001F910F91FF90EF90DF90CF90BF90AF90AD
:103960009F908F907F906F905F904F903F902F909F
:103970000895A6962FADA697A301BE01655C7F4F63
:10398000C4010E949B18882339F2CE01CB960E9475
:10399000040DA6968FADA6978670863039F449A996
:1039A0005AA96BA97CA9C4010E94D109B401C10123
:1039B0000E943A0FA3018CCFEF92FF920F931F93B7
:1039C000CF93DF93CDB7DEB76B970FB6F894DEBF1A
:1039D0000FBECDBF8C019091FB0580910206981718
:1039E000F9F00E94F71361E08091FB050E9410023C
:1039F0008091FB05863049F08E3209F440C191E098
:103A0000853021F01092350203C092E09093350288
:103A10009DB591609DBD9CB59C7F9CBD8093020629
:103A20000E94461441E0B801CE0101960E94D91BC4
:103A30008B819C8190932205809321058D819E81AD
:103A4000AF81B8858093230590932405A093250525
:103A5000B093260589859A85AB85BC85809327051B
:103A600090932805A0932905B0932A05DE011D96A1
:103A7000EBE2F5E08D91819365E0E833F607D1F74D
:103A80008A8D9B8D909339058093380548E050E0EE
:103A900060E070E08FE195E00E94960F8091170141
:103AA00090911801A0911901B0911A0189839A830C
:103AB000AB83BC838E010F5F1F4F7E0175E0E70E65
:103AC000F11C8FE195E00E942610F80121918F01F1
:103AD000022E000C330B8217930719F4EE15FF0525
:103AE00081F748E150E060E070E08FE195E00E94EE
:103AF000960F8FE195E00E9426109093FF0580932A
:103B0000FE058FE195E00E94261020E0382F80917D
:103B1000FE059091FF05282B392B3093FF0520934C
:103B2000FE054CE250E060E070E08FE195E00E941D
:103B3000960F80E490E0909334028093330281E00A
:103B40008093360280910801982F9F779093080107
:103B50002091FE053091FF052B3F3F4A30F020ECCD
:103B60003DE53093FF052093FE052091FE05309141
:103B7000FF0550E040E086FF84C060E075E38CE024
:103B800090E00E94E12E6AE0629FC001639F900D69
:103B9000112490930106809300068FE195E00E9426
:103BA00026108C018FE195E00E945A10800F911F22
:103BB00097FD01969595879530913202432F032EFC
:103BC000000C550B13160CF061C040918800509109
:103BD0008900BA0102C0769567953A95E2F79B0194
:103BE000992750E040E02817390708F05CC02F5FA4
:103BF0003F4F8217930708F49C01FA01EE54FE4FE1
:103C000020834F5F5F4F4034510589F750E040E01B
:103C10002F5F3F4F8217930708F49C01FA01EE5083
:103C2000FE4F20834F5F5F4F4034510589F710925C
:103C3000B10110920601109207011092B001F894A0
:103C400080910006909101069093870080938600F2
:103C500082E88093800089E18093810081E28093F3
:103C60006F0078946B960FB6F894DEBF0FBECDBF91
:103C7000DF91CF911F910F91FF90EF90089593E006
:103C8000C5CE60E07AE688E190E07BCF20918800A5
:103C90003091890051954195510902C0220F331F7F
:103CA0004A95E2F79DCFB90161507109681779070C
:103CB00018F12115310509F09B01FA01EE54FE4F70
:103CC00020834F5F5F4F4034510569F750E040E07B
:103CD000B901615071096817790780F02115310524
:103CE00009F09B01FA01EE50FE4F20834F5F5F4FBA
:103CF0004034510569F79BCF9C01DFCF9C01F2CF87
:103D00000F931F93CF93DF9300D000D000D0CDB797
:103D1000DEB78C01FC01808191810E94701A88239A
:103D200081F0F801808191810E94DC1C26960FB6FB
:103D3000F894DEBF0FBECDBFDF91CF911F910F91E1
:103D400008956BE972E0CE0101960E941E158981EB
:103D50009A810E94DC1CCE0101960E94DD13E6CF01
:103D6000CF93DF9300D000D000D0CDB7DEB7BC0139
:103D7000CE0101960E94A815CE0101960E94801ED8
:103D8000CE0101960E94DD1380913602882339F01E
:103D900061E070E080E090E00E94D202F5CF2696CC
:103DA0000FB6F894DEBF0FBECDBFDF91CF9108955F
:103DB0001F93CF93DF9300D000D000D0CDB7DEB7F4
:103DC000182F8FEF8093A301809140058F3F19F04A
:103DD0000E94FD10F9CF113071F467ED70E0CE0153
:103DE00001960E941E15CE0101960E94B01ECE01C2
:103DF00001960E94DD131093A30126960FB6F89446
:103E0000DEBF0FBECDBFDF91CF911F9108951F93ED
:103E1000CF93DF93CDB7DEB7A1970FB6F894DEBF8F
:103E20000FBECDBF69E071E0CE014C960E941E1519
:103E30006C8D7D8D41E0CE0101960E94D91BCE0193
:103E40004C960E94DD13CE0101960E948A0F10E06D
:103E5000882349F0CE0101960E942610182FCE012A
:103E600001960E94E513812FA1960FB6F894DEBF4C
:103E70000FBECDBFDF91CF911F910895FF920F9399
:103E80001F93CF93DF93CDB7DEB7A1970FB6F8940A
:103E9000DEBF0FBECDBF182F6AE070E080E090E07B
:103EA0000E94D20261E071E0CE014C960E941E1584
:103EB0006C8D7D8D41E0CE0101960E94D91BCE0113
:103EC0004C960E94DD1383E0189FA0011124052E5B
:103ED000000C660B770BCE0101960E94960FCE0167
:103EE00001960E942610F82ECE0101960E942610FF
:103EF000082FCE0101960E942610182FCE010196A0
:103F00000E94E5136F2D702F812FA1960FB6F894A4
:103F1000DEBF0FBECDBFDF91CF911F910F91FF90FC
:103F200008951F93CF93DF93CDB7DEB7A1970FB658
:103F3000F894DEBF0FBECDBF6CEC70E0CE010196F1
:103F40000E941E1589819A810E94701A182FCE0135
:103F500001960E94DD13112381F061EC70E0CE0127
:103F600001960E941E1561EA7AE189819A810E9478
:103F7000BF19CE0101960E94DD1366EB70E0CE0101
:103F80004C960E941E156C8D7D8D47E1CE010196E9
:103F90000E94D91BCE014C960E94DD1360919901BD
:103FA000CE0101960E94F90F6091F905CE010196AC
:103FB0000E94F90FCE0101960E94E513A1960FB65B
:103FC000F894DEBF0FBECDBFDF91CF911F91089552
:103FD000CF93DF9300D000D000D0CDB7DEB7809173
:103FE000F805882349F180913602811125C080911E
:103FF000F905833018F081508093F90581E08093B2
:10400000F7058091F90591E0833008F490E09093F2
:10401000F8058450809332020E94911F62EF70E095
:10402000CE0101960E941E15CE0101960E94B01E7F
:10403000CE0101960E94DD1326960FB6F894DEBFDE
:104040000FBECDBFDF91CF910895CF93DF9300D006
:1040500000D000D0CDB7DEB78091F705882349F1B5
:1040600080913602811125C08091F905863018F4BF
:104070008F5F8093F9058091F90591E0863008F013
:1040800090E09093F70591E09093F8058450809329
:1040900032020E94911F63EE70E0CE0101960E94F1
:1040A0001E15CE0101960E94B01ECE0101960E94FF
:1040B000DD1326960FB6F894DEBF0FBECDBFDF919D
:1040C000CF910895FF920F931F93CF93DF93CDB7B6
:1040D000DEB7A7970FB6F894DEBF0FBECDBF6CEA70
:1040E00070E0CE014C960E941E156C8D7D8D41E0D6
:1040F000CE0101960E94D91BCE014C960E94DD1381
:10410000CE0101960E948A0F882309F47BC040915A
:104110008301509184016091850170918601CE01E7
:1041200001960E94960F40E2BE016F5F7F4FCE0165
:1041300082960E94BD17CE0182960E94552D4AE0BC
:10414000BE016F5F7F4FCE014C960E94BD17CE011E
:104150004C960E94552D8C8D9D8DF12C009719F059
:104160000E94B62DF62EEA8DFB8D309769F0828580
:104170009385A485B5854389548965897689841793
:104180009507A607B70718F080E090E0DC01809360
:10419000830190938401A0938501B0938601CE01A1
:1041A00001960E94E5130EA11FA10F3F100729F0F1
:1041B00001151105D9F410929A0181E0F81280E0FE
:1041C0008093A201CE014C960E94DD13CE0182960F
:1041D0000E94DD13A7960FB6F894DEBF0FBECDBFC9
:1041E000DF91CF911F910F91FF9008956AA17BA15C
:1041F000A8018AE991E00E942D31F801E656FE4FB0
:104200001082DBCF62E0809143050E94050362EAE1
:1042100070E0CE014C960E941E1566E970E0CE015A
:104220004C960E94D715CE014C960E94DD13EACF22
:10423000CF92DF92EF92FF920F931F93CF93DF9372
:10424000CDB7DEB7EC970FB6F894DEBF0FBECDBF8B
:104250008EE690E00E94521200E037E0D32E802FCD
:104260006D2D0E949F2E282F892F90E02D9D800D6F
:10427000911D1124880F991F8D579A4F0E947E100F
:10428000182F0E947102C12C8FEF9FEF7C0181E0FB
:104290000E949802E816F906D1F4C39423E0C212F2
:1042A000F5CFE12FF0E0EE0FFF1F81E090E08C0FE3
:1042B0009D1FE80FF91FF1A2E0A298EEE91693E026
:1042C000F9066CF481E00E9498027C01F6CF883EEA
:1042D000E3E09E0714F08FEF9FEFC12CD7CF0F5F65
:1042E0000E3009F0BCCFFE01B196DE011596CE016D
:1042F000CD96219131912D933D938E179F07C9F74C
:1043000083ED91E6A9E2B0E089839A83AB83BC8315
:10431000FE0131967F0110E000E0F701D1907F01AE
:10432000C8010E94382ED81621F06D2DC8010E94B8
:10433000402E0F5F1F4F0032110579F788E690E09D
:104340000E945212EC960FB6F894DEBF0FBECDBF9E
:10435000DF91CF911F910F91FF90EF90DF90CF9061
:104360000C94F4121F920F920FB60F9211242F93F8
:104370003F938F939F93AF93BF938091A6019091AA
:10438000A701A091A801B091A9013091A50123E056
:10439000230F2D3758F50196A11DB11D2093A501BE
:1043A0008093A6019093A701A093A801B093A901BF
:1043B0008091AA019091AB01A091AC01B091AD01A7
:1043C0000196A11DB11D8093AA019093AB01A0930A
:1043D000AC01B093AD01BF91AF919F918F913F918F
:1043E0002F910F900FBE0F901F90189526E8230F66
:1043F0000296A11DB11DD2CF1F920F920FB60F9240
:1044000011242F933F934F935F936F937F938F93D9
:104410009F93AF93BF93EF93FF9387E394E00E9442
:10442000AE03FF91EF91BF91AF919F918F917F91DB
:104430006F915F914F913F912F910F900FBE0F9011
:104440001F9018951F920F920FB60F9211242F9361
:104450008F939F93EF93FF93E0914704F09148046B
:104460008081E0914D04F0914E0482FD1BC090814B
:10447000809150048F5F8F7320915104821741F017
:10448000E0915004F0E0E95CFB4F958F809350047D
:10449000FF91EF919F918F912F910F900FBE0F90F1
:1044A0001F9018958081F4CF1F920F920FB60F9234
:1044B00011242F933F934F935F938F939F93EF9389
:1044C000FF938091080186FD3FC020913202422F68
:1044D000022E000C550B27FF4FC08091B101209197
:1044E000B00130E4839FC00111248E549E4F820F8F
:1044F000911DFC01808190E051954195510902C0C8
:10450000959587954A95E2F7909382018093810172
:1045100090938900809388008091B0018F5F809391
:10452000B0018091B0018034D0F01092B001E091E0
:10453000B101F0E0EA5FFE4F91E090838091B1011C
:1045400089278093B1010BC08091880191E0892770
:104550008093880180918801882309F4B6CFFF9168
:10456000EF919F918F915F914F913F912F910F907C
:104570000FBE0F901F9018958091B1013091B0013E
:10458000F0E48F9FC00111248E549E4F830F911D24
:10459000FC01808190E002C0880F991F2A95E2F704
:1045A000B3CF1F920F920FB60F9211242F933F9308
:1045B0004F935F936F937F938F939F93AF93BF932B
:1045C000EF93FF93E091B10191E0E927F0E0EA5F1A
:1045D000FE4F80818823C9F18091B10189278093A2
:1045E000870180916F008F7D80936F0078948FE1B9
:1045F00095E00E94AC0F20913302309134022817CD
:104600003907A0F18091080183FF0EC04CE250E011
:1046100060E070E08FE195E00E94960F80916F005E
:10462000806280936F0011C080916F008E7D8093B7
:104630006F008FE195E00E948A0F882321F08FE1BF
:1046400095E00E94E51310923602FF91EF91BF9121
:10465000AF919F918F917F916F915F914F913F911A
:104660002F910F900FBE0F901F90189560918701AA
:104670008091380590913905009751F020E4629FB0
:10468000B00111246E547E4F40E450E00E94650B4F
:10469000E0918701F0E0EA5FFE4F1082BFCF7F928A
:1046A0008F929F92AF92BF92CF92DF92EF92FF9242
:1046B0000F931F93CF93DF93FC0111821082D0E000
:1046C000C0E0812C912C5401839470E050E030E0E4
:1046D0007C2ED501C4010C2E04C0880F991FAA1F7F
:1046E000BB1F0A94D2F7E080F1808B010C2E02C030
:1046F000159507950A94E2F700FF4CC08E299F2973
:1047000091838083CE0105968501740104C0EE0C6F
:10471000FF1C001F111F8A95D2F7C701E080F180AE
:104720008A01072C02C0159507950A94E2F700FF4D
:1047300038C08E299F2991838083CE010A968501F6
:10474000740104C0EE0CFF1C001F111F8A95D2F7E4
:10475000C70100811181790102C0F594E7947A9430
:10476000E2F7E0FE25C0802B912B91838083219678
:10477000C530D10509F0ACCFDF91CF911F910F91DA
:10478000FF90EF90DF90CF90BF90AF909F908F9071
:104790007F9008956C01C094D094C6018E219F2112
:1047A000AFCF6C01C094D094C6018E219F21C3CF9E
:1047B0008095909580239123D8CF2F923F924F924E
:1047C0005F926F927F928F929F92AF92BF92CF92A1
:1047D000DF92EF92FF920F931F93CF93DF93CDB7AA
:1047E000DEB76F970FB6F894DEBF0FBECDBF109245
:1047F0003A041092390488EE93E0A0E0B0E0809390
:104800003B0490933C04A0933D04B0933E0424E207
:1048100031E0309338042093370425EC30E03093B6
:1048200044042093430424EC30E030934604209366
:10483000450420EC30E0309348042093470421ECF9
:1048400030E030934A042093490422EC30E0309366
:104850004C0420934B0426EC30E030934E0420931C
:104860004D04109250041092510410925204109270
:10487000530420E52093D4041092D5041092DB0455
:104880001092DC041092DF041092E10442E050E048
:1048900060E070E04093E2045093E3046093E4042A
:1048A0007093E5041092F90410920305109202052A
:1048B00026E331E0309301052093000510920505B1
:1048C00010922205109221058093230590932405D0
:1048D000A0932505B093260582E491E090932005EE
:1048E00080931F05109239051092380510922B0500
:1048F00084E08093F90581E08093F7058093F805C3
:104900008093FA0590E080E050E4C52E55E0D52E66
:10491000FC01ED57FA4F20E0119211922F5F2730E2
:10492000D9F70E968833910579F726E044E066E0E2
:1049300083E895E00E944F2324E046E064E085E8A8
:1049400095E00E944F2325E044E067E087E895E08A
:104950000E944F2323E047E064E089E895E00E944D
:104960004F2322E045E066E08BE895E00E944F236C
:1049700021E046E065E08DE895E00E944F2320E0CD
:1049800045E067E08FE895E00E944F232DE043E08B
:1049900066E081E995E00E944F232CE046E063E069
:1049A00083E995E00E944F232BE043E067E085E92F
:1049B00095E00E944F232AE047E063E087E995E015
:1049C0000E944F2329E044E065E089E995E00E94D8
:1049D0004F2328E045E064E08BE995E00E944F23F7
:1049E00027E047E065E08DE995E00E944F2324E150
:1049F00042E066E08FE995E00E944F2322E146E025
:104A000062E081EA95E00E944F2323E142E067E003
:104A100083EA95E00E944F2321E147E062E085EAC6
:104A200095E00E944F2320E143E064E087EA95E0AF
:104A30000E944F232FE044E063E089EA95E00E9462
:104A40004F232EE043E065E08BEA95E00E944F2380
:104A50002BE142E063E08DEA95E00E944F232AE1DA
:104A600043E062E08FEA95E00E944F2329E142E0B3
:104A700064E081EB95E00E944F2328E144E062E08E
:104A800083EB95E00E944F2327E142E065E085EB50
:104A900095E00E944F2326E145E062E087EB95E038
:104AA0000E944F2325E145E063E089EB95E00E94F9
:104AB0004F23F12CE12C412C512C3201439410E076
:104AC00000E0C7018D579A4F1C01C101800F911F53
:104AD0000E947E1090E0F801ED5BFF4FEC0DFD1D94
:104AE0004081518130E020E0E0E053014201022E9C
:104AF00004C0880C991CAA1CBB1C0A94D2F7BA01EA
:104B0000022E02C0759567950A94E2F760FF84C093
:104B1000E8292F5F3F4F2530310539F7DC01AA0F17
:104B2000BB1FA554BA4FEC9330E020E0E0E0530106
:104B30004201022E04C0880C991CAA1CBB1C0A94BA
:104B4000D2F7B9016B5F7F4FDA0102C0B595A79527
:104B50006A95E2F7A0FF64C0E8292F5F3F4F253038
:104B6000310529F7880F991FDC01A454BA4FEC9343
:104B70000E5F1F4F0E30110509F0A7CFBEE0EB0E00
:104B8000F11C8EE0C80ED11C98E3E916F10409F07F
:104B900096CF86E08093F30597E09093F405909389
:104BA000F5058093F6058CE1809342058DE18093B5
:104BB00043058FEF809340058FE1FE013196A5E418
:104BC000B5E001900D928A95E1F78FE1FE013196F3
:104BD000A4E6B5E001900D928A95E1F762E571E0F7
:104BE0008AE395E06F960FB6F894DEBF0FBECDBF97
:104BF000DF91CF911F910F91FF90EF90DF90CF90B9
:104C0000BF90AF909F908F907F906F905F904F90EC
:104C10003F902F900C94C215682D6095E62379CFB4
:104C2000682D6095E62399CFCF93DF93CDB7DEB79C
:104C3000C059D1090FB6F894DEBF0FBECDBF78942E
:104C400084B5826084BD84B5816084BD85B5826091
:104C500085BD85B5816085BD80916E008160809342
:104C60006E001092810080918100826080938100AB
:104C700080918100816080938100809180008160BB
:104C8000809380008091B10084608093B100809116
:104C9000B00081608093B00080917A00846080933E
:104CA0007A0080917A00826080937A0080917A0005
:104CB000816080937A0080917A00806880937A0086
:104CC0001092C100E0914704F091480482E0808393
:104CD000E0914704F09148041082E0914304F09180
:104CE00044041082E0914504F091460480E1808301
:104CF00010924F04E0914B04F0914C0486E08083C5
:104D0000E0914904F0914A04808180618083E091C0
:104D10004904F0914A04808188608083E0914904CD
:104D2000F0914A04808180688083E0914904F09189
:104D30004A0480818F7D808380910505882321F03E
:104D400080E095E00E94040D1092E1041092DF04CF
:104D50001092DC041092DB048AE08093DA040E9453
:104D600023038B0161E08091DA040E94100261E06C
:104D70008091DA040E94C401FFB6F89480919001FA
:104D8000811127C0E9E6F2E08491EDE7F2E0949129
:104D9000E82FF0E0EE0FFF1FE55BFD4FA591B4910A
:104DA000EC91E92321F461E08AE00E94C40161E012
:104DB0008AE00E9410028CB580618CBD8CB5806445
:104DC0008CBD61E08DE00E94100261E08BE00E94EA
:104DD0001002809190018F5F80939001FFBE82E569
:104DE0008093D4041092D5048091D4049091D5047A
:104DF0000E948E04FAE0FF2E8FEF0E946904FA945D
:104E0000F110FACF86ED94E00E94910420E030E0AA
:104E1000A90160E086ED94E00E94A704F82E80933B
:104E2000E00421E0821709F46DC00E942303601B97
:104E3000710B613D774050F381E08093DB0486ED98
:104E400094E00E945E041092FA050E94F4128E0112
:104E50000F5F1F4FC8010E94D81289819A81AB81D0
:104E6000BC81833D9146A942B10551F08DE291E0AC
:104E70000E945212809142050E9471020E941821E4
:104E80007E01F5E5EF0EF11C62E9C62E61E0D62E3B
:104E90001E0126E0220E311C87E394E00E948E035F
:104EA000181619060CF0D9C181E08093A4010E9464
:104EB000F713809142050E9471028091A40188231A
:104EC00009F4D9C10E947F1563E871E0C8010E940E
:104ED0001E15C8010E945F13B82EC8010E94DD1381
:104EE000BB2009F4A4C08EE691E00E94451280E543
:104EF00091E00E94451262E571E08AE395E00E942C
:104F00004815DBCF2AEA31E040E050E068E086ED6A
:104F100094E00E94A70482FF2AC0F092E1048091ED
:104F2000E104C12CD12CE12C70E4F72E823019F071
:104F3000C12CD12C760120E030E0A90167E386ED99
:104F400094E00E94A704A701960169E286ED94E02F
:104F50000E94A7048093E0048823D1F00E942303D9
:104F6000601B710B613D774030F388E066CFE4E071
:104F7000FE2E0E9470048093E004FA94F110F9CFA1
:104F80008A3A11F082E059CF82E08093E104C7CFE2
:104F90008091E1048230D1F420E030E0A9016AE39D
:104FA00086ED94E00E94A704882311F086E045CFA7
:104FB0000E947004807C803C19F483E08093E104BB
:104FC0000E9470040E9470040E94700486ED94E0B8
:104FD0000E945E0480E58093D4041092D50481E0A1
:104FE0000E94C6068823B1F080E095E00E947D090A
:104FF000882309F428CF89E08093FB058091F90587
:1050000084508093320280913602882351F00E94AE
:10501000F7131BCF80E00E94C606882309F413CF44
:10502000E3CF80910801806480930801F0CF6DE7A1
:1050300071E0C8010E941E15C8010E945F13B82EBE
:10504000C8010E94DD13BB20C1F00E947F15A09013
:105050003A05B0903B05C5010E94701A882319F0EB
:1050600090E080E007C062EE7AE1C5010E94BF19BE
:1050700081E090E00E94C5123ECF6AE771E0C8016E
:105080000E941E15C8010E945F13B82EC8010E941D
:10509000DD13BB2009F44CC00E947F15A0903A0597
:1050A000B0903B05C5010E94701A8111D9CF47E12C
:1050B000B501C8010E94D91B81E090E00E94C51291
:1050C0000E947F1580913A0590913B05412C512C0F
:1050D0003201009721F00E94B62D2B013C0181E0A6
:1050E00090E00E94C512812C912C5401481459045F
:1050F0006A047B04A9F087E394E00E948E031816EB
:105100001906A4F787E394E00E946C03682FC80196
:105110000E94F90F8FEF881A980AA80AB80AE6CFFA
:10512000C8010E94E5138EE391E00E945212E3CE83
:1051300064E771E0C8010E941E15C8010E945F1358
:10514000B82EC8010E94DD13BB2019F00E9418215F
:10515000D2CE60E771E0C8010E941E15C8010E940E
:105160005F13B82EC8010E94DD13BB2061F04AE036
:1051700061E070E080E090E00E9460128EE691E0D5
:105180000E941D046DCF66E671E0C8010E941E15E5
:10519000C8010E945F13B82EC8010E94DD13BB2016
:1051A00009F447C067E471E0C7010E941E15F701CA
:1051B0006081718141E0C8010E94D91BC7010E9432
:1051C000DD13C8010E948A0F882359F1C8010E948B
:1051D000AC0F181619064CF540E2B801CE01805903
:1051E0009F4F0E94BD17E6964EAD5FADE697E296E3
:1051F0006EAD7FADE29787E394E00E94300380E5D7
:1052000091E00E9445124AE0B801C7010E94BD1713
:10521000C7010E94DD13CE0180599F4F0E94DD130C
:10522000D5CF83E491E00E945212C8010E94E51399
:1052300062CE61E671E0C8010E941E15C8010E949D
:105240005F13B82EC8010E94DD13BB2019F0109225
:10525000A40151CE81E591E068CFB090A301F2E0C6
:10526000BF1609F486C1FB1598F0BB2011F121E0AF
:10527000B21609F4D2C080E090E0892B09F40CCE7C
:105280000E949A03882309F407CE0E940000FCCDF7
:1052900084E0B81609F4C6C3B81608F4FFC295E056
:1052A000B912E9CF0E94FD1080914105882319F3BE
:1052B0006FC28091FA05811113C063E080914305AC
:1052C0000E94050365E472E0C8010E941E1566E9AC
:1052D00070E0C8010E94D715C8010E94DD13CBCF32
:1052E00064E172E0C7010E941E15F70160817181BF
:1052F00041E0C8010E94D91BC7010E94DD13C8010B
:105300000E948A0F8823E9F0C8010E94261080932A
:105310009901C8010E94261091E09093F70590939F
:10532000F805863008F46EC086E08093F905109287
:10533000F7058091F905845080933202C8010E94DC
:10534000E51361E0809142050E9405038DE392E040
:105350000E94521250E5A52E53ECB52E87E394E03F
:105360000E948E03892B21F421E0A21AB108B1F723
:1053700087E394E00E948E03892B09F07CCF0E9482
:1053800062206FE272E0C8010E941E15C8010E94EF
:10539000801EC8010E94DD1369E272E0C8010E940C
:1053A0001E1564E670E0C8010E94D715C8010E946E
:1053B000DD130E9446140E94410281E08093A30104
:1053C0006AE971E0C8010E94C215B801C7010E94D4
:1053D000A8156FE172E0C7010E947914BC01CE01EB
:1053E00080599F4F0E94A815CE0180599F4F0E945F
:1053F000B01ECE0180599F4F0E94DD13C7010E944D
:10540000DD136ACF833030F4F2E0F093F9051092A7
:10541000F8058FCF8093F9058CCF0E94FD10809105
:1054200040058A3009F4A3C050F4863091F08730EB
:1054300009F494C0811133C00E94252030C0853109
:1054400009F48FC08B3109F442C0813141F585E008
:105450008BC00E9462206AE971E0CE0180599F4FA3
:105460000E94C215BE0160597F4FC7010E94A81556
:1054700066EF71E0C7010E947914BC01C8010E9467
:10548000A815C8010E94B01EC8010E94DD13C70103
:105490000E94DD13CE0180599F4F0E94DD1385E0ED
:1054A000EBE1F1E0D80101900D928A95E1F7580106
:1054B000F50181915F010E94710261E070E080E07E
:1054C00090E00E94D2022A143B0491F7D4CE80913E
:1054D00036028111E4CF0E94071F8A3010F40E9427
:1054E000071F0E94071F8A30B0F50E94071FB82EC1
:1054F000882359F065E072E0C8010E941E15C801BA
:105500000E94B01EC8010E94DD136B2DC7010E94CE
:10551000521560E771E0C8010E94C215B701C801C9
:105520000E94D31460E072E00E947914BC01CE01A5
:1055300080599F4F0E94A815CE0180599F4F0E940D
:10554000B01ECE0180599F4F0E94DD13C8010E94FA
:10555000DD13C701A2CF4AE0B42ECCCF0E94E81FD2
:105560009ECF1092050182E00E94D81E98CF84E061
:10557000FBCF80910501813009F4CAC070F18230FF
:1055800009F4EBC0833009F076CEB12C80919801FC
:105590008B1508F470CE8B2D0E943E1FA62E972EE1
:1055A0000E947102492D6A2DC8010E94E517C801A9
:1055B0000E94B01EC8010E94DD130E944102109299
:1055C0009701D0929601C09295012FEF209304018C
:1055D00082E080930501B394D9CF0E9441021092DA
:1055E0009801109297016AE971E0C8010E94C21502
:1055F00068E771E0C7010E94C215B801C7010E94A7
:10560000D31461EF71E00E947914FC016081718113
:1056100041E0CE0180599F4F0E94D91BC7010E94D3
:10562000DD13C8010E94DD1340919901F4E54F9FFD
:10563000A0011124052E000C660B770BCE018059BA
:105640009F4F0E94960F48015801CE0180599F4FED
:105650000E942610F50181935F01EE16FF06A9F75F
:10566000CE0180599F4F0E94E51369EE71E0C7019A
:105670000E941E15F701808191810E94701A782E78
:10568000C7010E94DD13772079F061EE71E0C70158
:105690000E941E1561EA7AE1F701808191810E94E2
:1056A000BF19C7010E94DD1369ED71E0CE01855776
:1056B0009F4F0E941E15C557DF4F68817981CB58D7
:1056C000D04047E1C7010E94D91BCE0185579F4FAB
:1056D0000E94DD13F40161914F01C7010E94F90F8F
:1056E0008A149B04B9F7C7010E94E5139A818B8144
:1056F000298120939201909393018093940180914A
:1057000099018F5F809399010E94911F81E04CC0A5
:10571000809136028111AFCD809198010E943E1F89
:10572000A62E972E0E94710210929701D092960198
:10573000C0929501FFEFF0930401492D6A2DC80135
:105740000E94E517C8010E94B01EC8010E94DD1327
:105750000E944102B09205018ECD0E94FD10809101
:1057600040058F3F51F1B0904105BB2019F1809168
:1057700040058F3F19F00E94FD10F9CF809304017E
:1057800092E0B91681F09B1528F0E1E0BE1273CDCE
:1057900081E081C0F3E0BF1651F024E0B2126BCD7E
:1057A0000E94E81F68CD83E08093050164CD0E94CC
:1057B000252061CD809304015ECD809004019FEF90
:1057C000891609F458CDA0909501B0909601F50185
:1057D000928189125FC0809304017090420534E683
:1057E000932E872D0E94710261E070E080E090E0CE
:1057F0000E94D202882D0E94710261E070E080E078
:1058000090E00E94D2029A949110EBCFF501828130
:105810000E947102F50141816081C8010E94E51773
:10582000C8010E94801EC8010E94DD1380913602CB
:10583000B0909701A09098018823B1F0AB1468F064
:105840000E94FD10809140058F3F81F30E94461415
:105850008091400580930401E9CF61E070E080E031
:1058600090E00E94D202E2CF0E94410281E08B0DC3
:1058700080939701A81650F00E943E1F69837A8397
:105880008B831093960100939501F5CCA394A0927D
:1058900098013CCF83E00E94D81EEDCC0E94071FE8
:1058A000B09098018B1598F569E971E0C8010E94E4
:1058B0001E1589819A810E94701AA82EC8010E9423
:1058C000DD13AA2071F06FE871E0C8010E941E1577
:1058D00061EA7AE189819A810E94BF19C8010E9418
:1058E000DD1365E871E0C7010E941E15F7016081B4
:1058F000718147E1C8010E94D91BC7010E94DD13D5
:105900006B2DC8010E94F90FC8010E94E51363E0E6
:10591000809143050E9405036CEC71E0C8010E9470
:105920001E15C8010E94B01EC8010E94DD1380919F
:1059300098018823B1F16DEB71E0C8010E941E153A
:10594000C8010E94B01EC8010E94DD136091980139
:105950006B3008F06AE0C7010E94521560E771E001
:10596000CE0180599F4F0E94C215B701CE018059C8
:105970009F4F0E94D31468EB71E00E947914BC0120
:10598000C8010E94A815C8010E94B01EC8010E944B
:10599000DD13CE0180599F4F0E94DD13C7010E9485
:1059A000DD1380919801853020F56AE971E0CE0120
:1059B00080599F4F0E94C215BE0160597F4FC70199
:1059C0000E94A8156DEA71E0C7010E947914BC011C
:1059D000C8010E94A815C8010E94801EC8010E942B
:1059E000DD13C7010E94DD13CE0180599F4F0E9435
:1059F000DD1363EA71E0C8010E941E1560EA70E0E1
:105A0000C8010E94D715C8010E94DD13809136029B
:105A1000882309F4BDCE61E070E080E090E00E9450
:105A2000D202F4CF0E94FD10809140058F3F19F003
:105A300010929101ADCEB090910127E08B2D622F95
:105A40000E949F2E382F892F90E0329F800D911D4C
:105A50001124880F991F8D579A4F0E947E100E9423
:105A6000710268EC70E080E090E00E94D20281E078
:105A70008B0D8C3119F080939101FDCB1092910127
:105A8000809142050E94710268EC70E080E090E035
:105A90000E94D202809143050E94710268EC70E07E
:105AA00080E090E00E94D202E6CBAF92BF92CF920C
:105AB000DF92EF92FF920F931F93CF93DF93DC015E
:105AC000CD90DC901197C114D10439F01496CD918A
:105AD000DC918C017601209761F4DF91CF911F91C9
