:100000000C9490010C94B8010C94B8010C94B801B4
:100010000C94B8010C94B8010C94B8010C94B8017C
:100020000C94B8010C94B8010C94AB210C94B80159
:100030000C94B8010C942E210C94B8010C94B801C6
:100040000C948C200C94B8010C94FC200C94D620B9
:100050000C94B8010C94B8010C94B8010C94B8013C
:100060000C94B8010C94B801446F6E652E00436186
:100070006C6962726174696F6E206F66206275745C
:10008000746F6E73202D2069742077696C6C206208
:10009000652073746F726520696E20454550524F1C
:1000A0004D004E4F20434F4E4649470047414D4576
:1000B000532E50525400434F4E4649472E505254EF
:1000C00000434F4E4649472E50525400434F4E4630
:1000D00049472E5052540055492F4D454E552E57E5
:1000E00041560050524F5554532F5031302E5741E6
:1000F000560050524F5554532F5031302E574156C1
:1001000000544D502E5052540053434F52452E50E0
:100110005254002E574156002E574156007C3C3E0B
:100120005E2B3D3F2F5B5D3B2C2A225C004E4F2017
:1001300043414C4942524154494F4E2021004741CE
:100140004D45532E50525400636F6D6D616E6420A7
:10015000756E6B6E6F776E0045584954004C53476F
:10016000414D4553005645520043414C49420055CC
:10017000500053434F52452E5052540053434F5258
:10018000452E5052540053434F52452E5052540066
:10019000594F55204C4F4F5345002F4C4F4F53450F
:1001A0002E574156002E5741560055492F55525350
:1001B000434F52452E5741560055492F4C4F4F53F0
:1001C000452E57415600544D502E50525400544D18
:1001D000502E50525400544D502E505254002E5018
:1001E0005254002F47414D452E574156002E57413E
:1001F000560055492F484953434F52452E574156B3
:1002000000434F4E4649472E505254002F47414D10
:10021000452E5741560050524F55540050524F559D
:1002200054532F50392E5741560053544152545570
:1002300050004E4F205344000000000024002700CF
:100240002A0000000000250028002B0004040404FC
:100250000404040402020202020203030303030370
:10026000010204081020408001020408102001024D
:100270000408102000000008000201000003040729
:10028000000000000000000050524F5554532F5002
:10029000312E574156003944423900334333003937
:1002A0003636390037383638370037383700463871
:1002B0004600314631004244004637420046393755
:1002C000380046333300463946004632344600464D
:1002D0003234324600463800463244003946310056
:1002E0004600463646004644440046353100464204
:1002F0004200463936004639390046430046354605
:1003000000303030303030006E6F742079657420EA
:1003100063616C696272617465642100B722AC2C00
:1003200011241FBECFEFD8E0DEBFCDBF26E0A2E88C
:10033000B1E001C01D92A930B207E1F711E0A0E0E1
:10034000B1E0E6E8F0E602C005900D92A238B107F0
:10035000D9F711E0CFE8D1E004C02197FE010E9457
:10036000D82DCE38D107C9F70E94EE240C94363030
:100370000C94000090E0FC01EC58FD4F2491FC012E
:10038000E05AFD4F3491FC01E45BFD4FE491EE2314
:10039000C9F0222339F0233001F1A8F4213019F1FA
:1003A000223029F1F0E0EE0FFF1FEE5BFD4FA5912B
:1003B000B4918FB7F894EC91611126C030953E232B
:1003C0003C938FBF08952730A9F02830C9F024301E
:1003D00049F7809180008F7D03C0809180008F77E6
:1003E00080938000DFCF84B58F7784BDDBCF84B569
:1003F0008F7DFBCF8091B0008F778093B000D2CFFC
:100400008091B0008F7DF9CF3E2BDACFCF93DF9371
:1004100090E0FC01E05AFD4F2491845B9D4FFC016C
:1004200084918823D1F090E0880F991FFC01E85C4B
:10043000FD4FA591B491FC01EE5BFD4FC591D491A8
:1004400061110EC09FB7F8948C91E22FE0958E2336
:100450008C932881E223E8839FBFDF91CF91089599
:100460008FB7F894EC91E22BEC938FBFF6CF60E05E
:1004700082E00E94060260E083E00E94060260E0E3
:1004800084E00E94060260E085E00E94060260E0CF
:1004900086E00E94060260E087E00E94060260E0BB
:1004A00082E00E94BA0160E083E00E94BA0160E04D
:1004B00084E00E94BA0160E085E00E94BA0160E039
:1004C00086E00E94BA0160E087E00C94BA010F93C5
:1004D0001F93CF93DF93C82F0E943702D0E08E0185
:1004E000000F111F03541A4F61E0F80180810E9430
:1004F0000602CC0FDD1FC254DA4F61E088810E94F2
:10050000060261E0F80180810E94BA0160E0888102
:10051000DF91CF911F910F910C94BA018E3008F0AA
:100520008E508770806480937C0080917A00806414
:1005300080937A0080917A0086FDFCCF80917800CC
:100540009091790008953FB7F8948091AC01909113
:10055000AD01A091AE01B091AF0126B5A89B05C039
:100560002F3F19F00196A11DB11D3FBFBA2FA92F32
:10057000982F8827BC01CD01620F711D811D911D2F
:1005800042E0660F771F881F991F4A95D1F708959B
:100590008F929F92AF92BF92CF92DF92EF92FF9293
:1005A0006B017C010E94A3024B015C01C114D104C8
:1005B000E104F104B9F00E94A302681979098A09DB
:1005C0009B09683E73408105910580F321E0C21AC2
:1005D000D108E108F10888EE880E83E0981EA11C7E
:1005E000B11CE4CFFF90EF90DF90CF90BF90AF9021
:1005F0009F908F9008951F93CF93DF93182FD62F3E
:10060000C0E0812F0E94670264E670E080E090E025
:100610000E94C8020E94370264E670E080E090E029
:100620000E94C802CF5FDC13ECCFDF91CF911F9106
:1006300008952FB7F8946091A8017091A901809155
:10064000AA019091AB012FBF08950895AF92BF9278
:10065000CF92DF92EF92FF920F931F93CF93DF938E
:100660006C017B018B01040F151FEB015E01AE18BD
:10067000BF08C017D10759F06991D601ED91FC91DF
:100680000190F081E02DC6010995892B79F7C5010C
:10069000DF91CF911F910F91FF90EF90DF90CF905E
:1006A000BF90AF900895FC01538D448D252F30E00D
:1006B000842F90E0821B930B541710F0CF9608956F
:1006C00001970895FC01918D828D981761F0A28D9C
:1006D000AE0FBF2FB11D5D968C91928D9F5F9F7362
:1006E000928F90E008958FEF9FEF0895FC01918D18
:1006F000828D981731F0828DE80FF11D858D90E085
:1007000008958FEF9FEF0895FC01918D228D892F21
:1007100090E0805C9F4F821B91098F739927089509
:1007200089E394E00E94840321E0892B09F420E00E
:10073000822F089580E090E0892B29F00E94900399
:1007400081110C9400000895FC01A48DA80FB92F0D
:10075000B11DA35ABF4F2C91848D90E001968F73E9
:100760009927848FA689B7892C93A089B1898C9108
:10077000837080648C93938D848D981306C0028857
:10078000F389E02D80818F7D80830895EF92FF9221
:100790000F931F93CF93DF93EC0181E0888F9B8DA4
:1007A0008C8D98131AC0E889F989808185FF15C05E
:1007B0009FB7F894EE89FF896083E889F989808181
:1007C0008370806480839FBF81E090E0DF91CF9150
:1007D0001F910F91FF90EF900895F62E0B8D10E072
:1007E0000F5F1F4F0F731127E02E8C8D8E110CC0E1
:1007F0000FB607FCFACFE889F989808185FFF5CF2C
:10080000CE010E94A403F1CFEB8DEC0FFD2FF11D63
:10081000E35AFF4FF0829FB7F8940B8FEA89FB8968
:1008200080818062CFCFCF93DF93EC01888D8823C6
:10083000B9F0AA89BB89E889F9898C9185FD03C043
:10084000808186FD0DC00FB607FCF7CF8C9185FF28
:10085000F2CF808185FFEDCFCE010E94A403E9CFC6
:10086000DF91CF9108958FB7F89480918C018FBF5D
:10087000089561E0FC0184810E94BA0180918B019E
:10088000811110928B0108958EBD00000DB407FEFA
:10089000FDCF8EB508958FEF0C9444040F931F93F2
:1008A000CF93DF93EC010E9419038B010E944B044C
:1008B0008F3F69F00E941903601B710B6C177D0755
:1008C000A8F380E0DF91CF911F910F91089581E00F
:1008D000F9CF8CBD9DBD0895CF93DF93EC0180913E
:1008E0008B01811109C081E080938B018091D60436
:1008F0009091D7040E94690460E08C81DF91CF91D0
:100900000C94BA018F929F92AF92BF92FF920F9375
:100910001F93CF93DF93EC01F62E49015A018E818C
:10092000882389F08F8198859C012F5F3F4F3887FE
:100930002F838230924018F40E944B04F3CFCE01F3
:100940000E9439041E82CE010E946C048CE291E068
:100950000E944E048F2D80640E94440408E110E040
:10096000D501C401002E04C0B695A795979587952B
:100970000A94D2F70E94440408501109083F8FEFEF
:10098000180771F785E9FF2021F028E087E8F212C7
:100990008FEF0E94440410E00E944B048A8787FF77
:1009A00004C01F3F11F01F5FF7CFDF91CF911F9160
:1009B0000F91FF90BF90AF909F908F900895AF924E
:1009C000BF92CF92DF92EF92FF920F931F93CF933C
:1009D000DF93EC016901C801820F931F81309240BF
:1009E00050F58E81882379F088819981AA81BB8115
:1009F00084179507A607B70731F48F819885C81625
:100A0000D90608F042C0488359836A837B838B856B
:100A1000833039F089E0440F551F661F771F8A9590
:100A2000D1F79A01AB0161E1CE010E9482048823D3
:100A300089F083E08D83CE010E94390480E0DF914C
:100A4000CF911F910F91FF90EF90DF90CF90BF90CB
:100A5000AF9008950E9419035B010E944B048A879E
:100A60008F3F69F40E9419036A197B096D32714046
:100A7000A0F38FE08D83CE010E943904DCCF8E3F3E
:100A800089F418861F8281E08E838F8198858C156A
:100A90009D0550F40E944B048F819885019698879C
:100AA0008F83F3CF8DE0E6CF6701E00EF11E0E9449
:100AB0004B04F60181936F01EE15FF05C1F78F819D
:100AC0009885080F191F18870F838985882319F0C7
:100AD00001151240A0F08E81882389F08F819885BE
:100AE0009C012F5F3F4F38872F838230924018F44C
:100AF0000E944B04F3CFCE010E9439041E8281E094
:100B00009ECFCF92DF92EF92FF920F93CF93DF931E
:100B1000EC01690182E1411551056105710599F00A
:100B20008B85833039F089E0440F551F661F771F8E
:100B30008A95D1F79A01AB0168E1CE010E94820447
:100B4000882319F084E08D832DC08EEF0E94440429
:100B500076018EEFD81AF70181917F010E9444043B
:100B6000EC14FD04C1F78FEF0E9444048FEF0E9444
:100B700044040E944B048A878F71853071F40111FF
:100B800016C0CE010E94390481E0DF91CF910F9110
:100B9000FF90EF90DF90CF90089581E18D83CE019B
:100BA0000E943904CE010E94390480E0EECF88E52E
:100BB00092E00E944E04811102C085E1C4CF20E082
:100BC00030E0A9016DE0CE010E948204882311F07B
:100BD00084E1B9CF0E944B048111FACFD2CF0F9399
:100BE00040918E0150918F0160919001709191011F
:100BF000411551056105710599F0082F29E332E08F
:100C00008091B0019091B1010E948105882349F043
:100C100010928E0110928F0110929001109291010A
:100C200081E00F9108950F93CF93C82F80918D018C
:100C3000811105C0C1E08C2FCF910F910895409193
:100C400000015091010160910201709103010C2F8C
:100C500029E332E08091B0019091B1010E948105B9
:100C6000811102C0C0E0E7CFCC2321F381E00E94D4
:100C7000EF058823B9F310928D01DDCF8F929F92FB
:100C8000AF92BF92EF92FF920F931F93CF934B01BE
:100C90005C01C42F8091000190910101A09102019B
:100CA000B091030188159905AA05BB0551F181E0B2
:100CB0000E94130681110BC080E0CF911F910F910C
:100CC000FF90EF90BF90AF909F908F90089589E331
:100CD000E82E82E0F82E00E012E030E020E0B501DE
:100CE000A4018091B0019091B1010E94DF0488239A
:100CF00019F38092000190920101A0920201B0923A
:100D0000030140918D014C2B40938D0181E0D5CFA3
:100D1000CF93DF93EC016E857F858889998941E0C7
:100D20000E943E06882351F08A8920E2829FC001FA
:100D30001124875C9D4FDF91CF91089590E080E072
:100D4000FACF8F929F92AF92BF92CF92DF92EF92A3
:100D5000FF92CF9328ED34E03093B1012093B0019E
:100D6000882309F46DC040E060E070E0CB010E9490
:100D70003E0681110BC080E0CF91FF90EF90DF9095
:100D8000CF90BF90AF909F908F9008958091F70380
:100D90008F7789F78091030490910404A091050452
:100DA000B091060484369105A105B10520F3C090E9
:100DB000FF03D0900004E0900104F0900204C114FD
:100DC000D104E104F104B9F240E0C701B6010E9488
:100DD0003E06882381F2809144029091450281155C
:100DE000924049F6A0914902AA2329F26091470254
:100DF000709148026115710509F4BDCF209146023A
:100E0000222309F4B8CFA093F6042093E80490E0DD
:100E100080E030E0E1E0F0E0C82FAF01082E02C032
:100E2000440F551F0A94E2F72417350769F041E093
:100E3000480F01968930910579F74093F1049BCFD3
:100E4000C12CD12C7601C0CF8093F10420914F02A8
:100E50003091500250E040E02115310541F42091DD
:100E60005D0230915E0240915F02509160022093DA
:100E7000E9043093EA044093EB045093EC044601F8
:100E80005701860E971EA11CB11C8092F704909208
:100E9000F804A092F904B092FA04E0914A02F091A9
:100EA0004B02F093FD04E093FC04B0E00E94482D57
:100EB000DC01CB01880D991DAA1DBB1D8093FE048A
:100EC0009093FF04A0930005B093010525E0EE0F79
:100ED000FF1F2A95E1F7E150FE4FEF2FFF27E69520
:100EE0008E0F9F1FA11DB11D8093F2049093F304F8
:100EF000A093F404B093F50480904C0290904D02BE
:100F0000B12CA12C8114910441F48090590290904D
:100F10005A02A0905B02B0905C02C81AD90AEA0A91
:100F2000FB0AC80CD91CEA1CFB1C04C0F694E7940D
:100F3000D794C794CA95D2F7C092ED04D092EE042C
:100F4000E092EF04F092F00485EFC8168FE0D80627
:100F5000E104F10428F48CE08093FB0481E00CCFE1
:100F600080E125EFC2162FEFD206E104F104A0F3D1
:100F70008091650290916602A0916702B09168022B
:100F80008093FE049093FF04A0930005B0930105A5
:100F900080E2E2CF4F925F926F927F928F929F9208
:100FA000AF92BF92CF92DF92EF92FF920F931F9377
:100FB000CF93DF93EC01423051056105710590F448
:100FC00080E0DF91CF911F910F91FF90EF90DF9024
:100FD000CF90BF90AF909F908F907F906F905F90D9
:100FE0004F90089589859A85AB85BC850196A11D92
:100FF000B11D84179507A607B70710F3CB88DC88C7
:10100000ED88FE888F89803109F042C0BB27A72F69
:10101000962F852F480159012A013B01C80ED91E80
:10102000EA1EFB1E8091000190910101A091020136
:10103000B0910301C816D906EA06FB0699F58F8917
:101040008031C1F5B301A201552766277727440FE8
:10105000551F475C5D4FFA019182808280918D011E
:10106000816080938D018A89823080F08D819E819C
:10107000AF81B8858C0D9D1DAE1DBF1D80938E0167
:1010800090938F01A0939001B093910181E099CF4B
:10109000DB01CA01E7E0B695A79597958795EA9594
:1010A000D1F7B8CF40E0C701B6010E943E068111DA
:1010B000C6CF86CFB301A2014F7755276627772782
:1010C000440F551F440F551F475C5D4FFA01808246
:1010D0009182A282B382C2CF8F929F92AF92BF922F
:1010E000CF92DF92EF92FF920F931F93CF93DF93F4
:1010F000FC0181859285A385B4850196A11DB11D52
:1011000084179507A607B70770F480E0DF91CF91A9
:101110001F910F91FF90EF90DF90CF90BF90AF9015
:101120009F908F90089583889488A588B688878932
:10113000803189F5BB27A72F962F852FE9016A01FA
:101140007B018F01BC01CD01680D791D8A1D9B1D9E
:101150008090000190900101A0900201B0900301E5
:1011600086169706A806B90601F5F8018789803129
:1011700011F5DD24EE24FF24F601EE0FFF1FE75CDE
:10118000FD4F80819181B0E0A0E088839983AA839C
:10119000BB8381E0BBCFDB01CA01C7E0B695A79551
:1011A00097958795CA95D1F7C9CF40E00E943E0632
:1011B0008111DBCFAACFE894C7F8DD24EE24FF2409
:1011C000F601EE0FFF1FEE0FFF1FE75CFD4F808162
:1011D0009181A281B381BF70D8CF4F925F926F92FD
:1011E0007F92AF92BF92CF92DF92EF92FF920F93D6
:1011F0001F93CF93DF9300D000D0CDB7DEB78C0123
:1012000049835A836B837C835901C12CD12C76018D
:10121000412C82E0582E612C712C49815A816B81BE
:101220007C819E012F5F3F4FC8010E946C0888237C
:1012300039F1F8018585A301920104C0220F331F03
:10124000441F551F8A95D2F7DA01C901C80ED91E6D
:10125000EA1EFB1E49815A816B817C81878980311E
:1012600011F188EF9FEFAFEFBFE0481759076A070A
:101270007B0798F2F501C082D182E282F38281E09D
:101280000F900F900F900F90DF91CF911F910F91C2
:10129000FF90EF90DF90CF90BF90AF907F906F90D6
:1012A0005F904F90089588EF9FEFA0E0B0E0DDCF12
:1012B000CF93DF93FC012581222321F080E0DF9191
:1012C000CF910895EC018091FB04803159F582E0C3
:1012D0008583178A108E118E128E8091FC04909156
:1012E000FD04B0E0A0E025E0880F991FAA1FBB1FF6
:1012F0002A95D1F7838B948BA58BB68B84EE94E0E3
:101300009C8F8B8F81E08C831E821F8218861986AA
:101310001A861B861C861D861E861F86188A198AB9
:101320001A8ACDCF803251F683E085834091FE0446
:101330005091FF046091000570910105478B508F1B
:10134000618F728F9F012D5E3F4F84EE94E00E946B
:10135000ED088111D3CFB2CF8F929F92AF92BF92FF
:10136000CF92DF92EF92FF920F931F93CF93DF9371
:10137000EC018D8181110EC080E0DF91CF911F9132
:101380000F91FF90EF90DF90CF90BF90AF909F9024
:101390008F9008950B891C892D893E8904171507A4
:1013A0002607370748F34A015B01823031F48A8609
:1013B0009B86AC86BD8681E0E0CF81149104A104B8
:1013C000B10449F41E821F82188619861A861B866C
:1013D0001C861D86F0CF0A851B852C853D85EB8DEF
:1013E000FC8D858590E00996B901A801415051090D
:1013F00061097109082E04C0769567955795479540
:101400000A94D2F775016401E1E0CE1AD108E1082F
:10141000F10804C0F694E794D794C7948A95D2F75C
:10142000C416D506E606F70620F0012B022B032B87
:1014300011F58F89988DA98DBA8D8E839F83A8878A
:10144000B9878E010A5F1F4FC114D104E104F10472
:1014500009F4ADCF4E815F816885798598018B8DC8
:101460009C8D0E946C0891E0C91AD108E108F1082E
:101470008111EACF81CFC41AD50AE60AF70AE1CF73
:101480003F924F925F926F927F928F929F92AF9214
:10149000BF92CF92DF92EF92FF920F931F93CF9361
:1014A000DF93CDB7DEB72C970FB6F894DEBF0FBE33
:1014B000CDBF5C01DC015B968D909C905C9716968D
:1014C0004D905D906D907C9019974114510461048A
:1014D000710409F468C0BFEF4B1A5B0A6B0A7B0A00
:1014E000312CF40181859285A385B4859C01AD01E1
:1014F0002F5F3F4F4F4F5F4F29873A874B875C875E
:10150000730162011D821E821F821886F40181858B
:101510009285A385B4852D813E814F8158852817FA
:1015200039074A075B0708F056C089859A85AB855D
:10153000BC858C159D05AE05BF0550F482E0C82E14
:10154000D12CE12CF12C92E0492E512C612C712CE4
:101550009E012F5F3F4FB701A601C4010E946C0896
:101560008823C9F189819A81AB81BC81892B8A2B1F
:101570008B2B09F1260137019FEF491A590A690A95
:10158000790A2D813E814F8158852F5F3F4F4F4F04
:101590005F4F2D833E834F8358873FEFC31AD30A93
:1015A000E30AF30AB3CFF401408051806280738074
:1015B0003324339496CFC414D504E604F70409F712
:1015C0000FEF1FEF2FEF3FE0B701A601C4010E940C
:1015D000CA07811119C080E02C960FB6F894DEBFBF
:1015E0000FBECDBFDF91CF911F910F91FF90EF9074
:1015F000DF90CF90BF90AF909F908F907F906F9033
:101600005F904F903F900895D50116964D915D9152
:101610006D917C911997411551056105710539F05E
:1016200097018601C4010E94CA078823A1F2D5014F
:101630001696CD92DD92ED92FC921997332051F0DF
:10164000D701C6010196A11DB11DF40180839183CC
:10165000A283B383F5018789908DA18DB28D892BEB
:101660008A2B8B2B39F48481C78AD08EE18EF28E3F
:1016700080688483F50184818062848381E0ACCFBB
:101680002F923F924F925F926F927F928F929F9292
:10169000AF92BF92CF92DF92EF92FF920F931F9380
:1016A000CF93DF93EC015B012A018D81811115C07D
:1016B0008FEF9FEFDF91CF911F910F91FF90EF90F0
:1016C000DF90CF90BF90AF909F908F907F906F9062
:1016D0005F904F903F902F9008958C8180FFE8CFCE
:1016E0000B891C892D893E894A855B856C857D85A2
:1016F000C201B0E0A0E068017901C41AD50AE60A87
:10170000F70AC816D906EA06FB0618F42801441A97
:10171000550A42011E0126E0220E311C811491045B
:1017200009F4B3C04A855B856C857D856A0181E0DB
:10173000D8228B8D9C8D8A019B01E9E036952795F7
:1017400017950795EA95D1F7ED81E230E1F5FC01B7
:10175000628D738D848D958D600F711F821F931F15
:10176000612C22E0722E6C187D088614970408F410
:1017700034012C8126FD04C06114F2E07F0671F46F
:1017800000910001109101012091020130910301AB
:10179000061717072807390709F053C040E00E94D1
:1017A0003E06882309F484CFC601875C9D4FD5018E
:1017B0009C01260D371DFC012E173F0709F460C060
:1017C00041914D93F9CFFC0174807A947022C11439
:1017D000D10471F471100CC0452B462B472B39F501
:1017E0008F89988DA98DBA8D8E839F83A887B9879D
:1017F000EB8DFC8D6E817F818885998562507109A2
:1018000081099109258504C0660F771F881F991FDC
:101810002A95D2F70685178520893189600F711FB7
:10182000821F931F670D711D811D911D99CF4E81E0
:101830005F816885798591010E946C088111D8CFFC
:1018400037CF750183019601AB01BC018091B001D6
:101850009091B1010E94DF04882309F429CFA60CDE
:10186000B71C8A859B85AC85BD85860D971DA11DFE
:10187000B11D8A879B87AC87BD87861897084ECF96
:10188000281B390BA20EB31EECCFC20113CF1F933E
:10189000CF93DF93FC012581222371F1162FEC01F8
:1018A000848187FF1EC0CF010E948806FC01892B1E
:1018B00019F18D81823040F48B899C89AD89BE8974
:1018C000848F958FA68FB78F8F89988D938F828FF6
:1018D0008F89988DA98DBA8DB58BA48B8C818F77CC
:1018E0008C83111103C08C818F7E8C83812FDF91BB
:1018F000CF911F910C94130680E0DF91CF911F913F
:101900000895FF920F931F93CF93DF93EC018D8186
:10191000813041F090E080E0DF91CF911F910F91F5
:10192000FF9008958C8181FFF5CF82FD1BC000914F
:10193000B0011091B101C8010E946C040E944B04D7
:10194000F82EC8010E9439048FEFF812E3CF8C8182
:1019500085FF1BC060E0CE010E94470C8C818F7D0B
:101960008C83D8CF4B895C896D897E898A859B85DC
:10197000AC85BD8584179507A607B707C1F2CE01D0
:101980000E94AC098111D3CFC5CF40918E015091F7
:101990008F016091900170919101452B462B472B4F
:1019A00021F080E00E94EF05B5CF80618C832A850D
:1019B0003B85317080E092E0821B930BADCFCF93DB
:1019C000DF93EC0161E00E94470C882311F01D8237
:1019D00081E0DF91CF9108952F923F924F925F92D5
:1019E0006F927F928F929F92AF92BF92CF92DF922F
:1019F000EF92FF920F931F93CF93DF9300D000D00D
:101A00001F92CDB7DEB77C015B01342E5D83DC0114
:101A100015968C911597813009F0CEC014962C90B4
:101A200021FECAC022FCB4C0C32CDD8022947FE01A
:101A300027222094B22DB1702B2ED7011A964D91EA
:101A40005D916D917C911D97C114D10409F428C159
:101A50005B968D919C915C97FC0174807A948A01CD
:101A60009B0169E036952795179507956A95D1F7FB
:101A700070228A011170711020C001151105E9F45E
:101A800016964D915D916D917C9119974115510577
:101A90006105710509F099C057968D919D910D9042
:101AA000BC91A02D0097A105B10509F0B0C0C701F8
:101AB0000E94400A882309F47FC080E092E0801BE6
:101AC000910B46018C159D0508F44C01D7015B96DE
:101AD0004D915C915C9716968D919D910D90BC9166
:101AE000A02D0297A109B109FA01258504C0880F2C
:101AF000991FAA1FBB1F2A95D2F746855785608973
:101B00007189840F951FA61FB71F9C01AD01270D7A
:101B1000311D411D511D29013A01811432E0930606
:101B200009F07BC08091000190910101A091020118
:101B3000B091030184159505A605B70559F48FEFFB
:101B40009FEFDC018093000190930101A0930201BB
:101B5000B0930301022D9501B301A2018091B00160
:101B60009091B1010E948105882331F19EEFB91A4D
:101B7000C818D908F70182859385A485B585880D95
:101B8000991DA11DB11D82879387A487B58755CF65
:101B9000F701438954896589768982859385A4856F
:101BA000B585481759076A077B0709F43DCFC70178
:101BB0000E94AC09811138CF81E090E0D7011396E3
:101BC0009C938E93129780E007C09E012F5F3F4F3A
:101BD0000E946C08811102C090E079C089819A81CD
:101BE000AB81BC81F701238D348DF901278948EF42
:101BF0005FEF60E070E0203121F048EF5FEF6FEFC2
:101C00007FE084179507A607B70708F050CFF701C4
:101C100086839783A087B18750CF0115110599F569
:101C2000D7011A964D915D916D917C911D975396B8
:101C30008D919D910D90BC91A02D481759076A0771
:101C40007B0708F181E00E941306882309F4B4CFD2
:101C500040920001509201016092020170920301D2
:101C600080918D01816080938D01C801875C9D4FBB
:101C7000D5019C01280D391DFC012E173F0759F095
:101C80004D914193FACF41E0C301B2010E943E065B
:101C90008111EBCF91CF281B390BA20EB31E68CF59
:101CA000F70183899489A589B68984179507A607C2
:101CB000B70738F48481438B548B658B768B8068AF
:101CC0008483F701848183FD1AC0832D9D810F9049
:101CD0000F900F900F900F90DF91CF911F910F9168
:101CE000FF90EF90DF90CF90BF90AF909F908F903C
:101CF0007F906F905F904F903F902F90089561E09C
:101D0000C7010E94470C882309F456CFDECFCF933A
:101D1000DF931F92CDB7DEB7698341E050E0BE018B
:101D20006F5F7F4F0E94EC0C0F90DF91CF91089571
:101D3000FC01DB0112968D919C9113979383828312
:101D400086E391E09183808314968C911497848329
:101D500015968C911597858316964D915D916D9191
:101D60007C91199746835783608771871A964D91A6
:101D70005D916D917C911D9742875387648775872C
:101D80001E964D915D916D917C9151974687578735
:101D9000608B718B52968C915297828B53964D919A
:101DA0005D916D917C915697438B548B658B768BAF
:101DB00057964D915D916D917C915A97478B508FBD
:101DC000618F728F5B968D919C91948F838F089514
:101DD000DC015996ED91FC91309721F081E09581DD
:101DE000911101C080E00895FC01818D928D0097D2
:101DF00029F00E94AC0991E0811101C090E0892F87
:101E00000895FC01818D928D009719F061E00C948A
:101E1000470C0895DC015996ED91FC913097B9F08B
:101E200083899489A589B68942855385648575859A
:101E3000841B950BA60BB70B811520E89207A10513
:101E4000B10538F08FEF9FE7A0E0B0E0089590E093
:101E500080E00895DC0159968D919C91009739F0AE
:101E6000DC01ED91FC910480F581E02D099490E076
:101E700080E00895CF93DF93EC01E98DFA8D3097E0
:101E800049F481E090E09B838A8390E080E0DF91D9
:101E9000CF91089513821282898D9A8D0E94EC0C45
:101EA000E98DFA8D22813381232B59F7F0CFCF931F
:101EB000DF931F92CDB7DEB76983DC01ED91FC9112
:101EC0000280F381E02D41E050E0BE016F5F7F4F63
:101ED00009950F90DF91CF910895CF93DF931F92D3
:101EE000CDB7DEB741E050E0BE016F5F7F4F0E948B
:101EF000400B019731F4898190E00F90DF91CF91F1
:101F000008958FEF9FEFF9CFFC01818D928D00979F
:101F100011F00C946D0F8FEF9FEF08950F931F93A7
:101F2000CF93DF93EC010E941903688779878A8732
:101F30009B87CE010E94840F97FF15C00E94190352
:101F4000088519852A853B85601B710B820B930BD5
:101F50000C811D812E813F816017710782079307D5
:101F600040F38FEF9FEFDF91CF911F910F91089575
:101F70000F931F93CF93DF93EC01898D9A8D10E01F
:101F800000E0009799F00E946D0F8C010F3F100741
:101F900069F0898D9A8DFC0142855385648575852C
:101FA00041505109610971090E94AC09C801DF91D2
:101FB000CF911F910F910895CF92DF92EF92FF92F0
:101FC000CF93DF93DC01ED91FC9130E020E080E0E5
:101FD000C12CD12C7601C394B701A601022E04C0F6
:101FE000440F551F661F771F0A94D2F7D9011A961E
:101FF000EF0102C0D595C795AA95E2F7C0FF0DC0C5
:10200000842B2F5F3F4F2530310531F7DF91CF9182
:10201000FF90EF90DF90CF90089540958423F1CF0B
:10202000FF920F931F93CF93DF93EC0100E0F12C0D
:102030008C8D0E948E02FE0110E0219131912D5F66
:102040003F4F28173907F4F41F5F1E30B1F70F5FB9
:102050001F1100E061E070E080E090E00E94C802A3
:10206000F12E033029F78FEF8E8F8D8D8130C1F0E7
:10207000A0F08230D1F08E8DDF91CF911F910F9122
:10208000FF900895143019F7288539852A503109B1
:1020900082179307E4F615E0DACF81E08D8FEBCF5E
:1020A00082E01E30D9F780E0F9CF1E3011F41D8E8A
:1020B000E2CF1E8FE0CFCF9387E495E00E9410100F
:1020C000C82F86E695E0CF3F09F50E9410108F3F9C
:1020D00069F410924305809142058F3F29F00E94D8
:1020E00037028FEF80934205CF910895CEE0C80F5D
:1020F00010924305CF3F79F3809142058C17A1F3ED
:10210000C09342058C2FCF910C9467020E9410104F
:10211000825FC63051F48B3121F481E08093430516
:10212000EBCF853171F482E0F9CFC11104C0853164
:1021300041F483E0F3CFC73021F4853111F484E01A
:10214000EDCF10924305D8CF8F929F92AF92BF925E
:10215000CF92DF92EF92FF920F931F93CF93DF9373
:1021600000D000D0CDB7DEB7FC018581813091F081
:1021700080E00F900F900F900F90DF91CF911F9103
:102180000F91FF90EF90DF90CF90BF90AF909F9016
:102190008F900895848181FFEBCF83899489A589ED
:1021A000B689892B8A2B8B2B09F45FC07F0140E015
:1021B00050E0BA01CF010E94AC098823C9F2F701AF
:1021C000C38CD48C8788908CA18CB28C82E090E0F8
:1021D000A0E0B0E0F60180839183A283B3839E01E7
:1021E0002F5F3F4FB501A401C6010E946C088823F0
:1021F00009F4BECF00E010E09801B501A401C601CA
:102200000E94CA07882309F4B3CF89809A80AB80E3
:10221000BC80F6018789803119F188EF9FEFAFEF1D
:10222000BFE088169906AA06BB06C8F2F701178A0E
:10223000108E118E128E138A148A158A168A848142
:102240008068848361E0C7010E94470C882309F4F9
:102250008FCF40E050E0BA01C7010E94AC0989CF9E
:1022600088EF9FEFA0E0B0E0DCCF81E082CFCF929B
:10227000DF92EF92FF921F93CF93DF93EC0180E206
:10228000689FF0011124E75CFD4F9385917161F027
:10229000842F827449F080E0DF91CF911F91FF90ED
:1022A000EF90DF90CF900895142F6A8B80910001FA
:1022B00090910101A0910201B09103018E879F8747
:1022C000A88BB98BC488D588F12CE12C7601DD244C
:1022D000CC24CF8AD88EE98EFA8E828D938DB0E091
:1022E000A0E0AC01BD014C295D296E297F294F8BEF
:1022F000588F698F7A8F83858871B1F4848D958D1D
:10230000A68DB78D8B8B9C8BAD8BBE8B81E08D8327
:102310001F701C831E821F82188619861A861B86D0
:102320001C861D8681E0B8CF803109F0B4CF9E01B4
:102330002D5E3F4F8B8D9C8D0E94ED08882309F404
:10234000AACF84E0E4CFFC0101900020E9F73197A7
:10235000AF01481B590BBC0189E394E00C942603A0
:102360000F931F93CF93DF938C01D0E0C0E0F8016F
:10237000EC0FFD1F6491662341F089E394E00E9415
:10238000C603892B11F02196F2CF80E591E00E94DF
:10239000A3118C0F9D1FDF91CF911F910F91089575
:1023A0000F931F93CF93DF93CDB7DEB7A1970FB6EF
:1023B000F894DEBF0FBECDBF19A2805D88A3CE0109
:1023C00080960E94A3118C0180E591E00E94A311E8
:1023D000800F911FA1960FB6F894DEBF0FBECDBF40
:1023E000DF91CF911F910F910895EF92FF920F937C
:1023F0001F93CF93DF937C018C01D0E0C0E0CE012E
:102400000E94322DF80181938F012196C032D105AF
:10241000B1F7C701DF91CF911F910F91FF90EF901E
:102420000895CF93DF93CDB7DEB7C056D1090FB66D
:10243000F894DEBF0FBECDBFCE018F5B9F4F0E94D1
:10244000F51125968CAD9DADAEADBFAD2597833D05
:102450009146A942B10521F088E093E00E94B011B5
:1024600080E2FE01EF5BFF4FDE01119601900D92BD
:102470008A95E1F781E080936305109264058FEF00
:1024800080936505CE010596E7E4F5E09E012F5D9A
:102490003F4FDC014D915D91CD0141935193A217C6
:1024A000B307B9F720E2FE01EF5BFF4FDE01919623
:1024B00001900D922A95E1F722E020938205109277
:1024C00083052FEF20938405FE01B596A6E6B5E0BF
:1024D0008096219131912D933D93E817F907C9F723
:1024E0000E943702C05ADF4F0FB6F894DEBF0FBE0E
:1024F000CDBFDF91CF9108952091400530914105E6
:10250000DC0114964D915C91159724173507D9F489
:10251000E0913C05F0913D056D917C913097D1F0B3
:102520006115710599F4232BC1F0808190E008C0FA
:10253000232B99F0FB01808190E091958195910981
:1025400021E0892B09F020E0822F0895CF010E941D
:102550001730F6CF6115710559F721E0F5CF0F93CC
:102560001F93CF93DF938C01EB01FC01808191815C
:102570000097E1F06881798161157105A9F04281C8
:1025800053812C813D814217530770F00E94203007
:102590008C819D81F801958384831D821C82DF914B
:1025A000CF911F910F9108950E94B02E888199813B
:1025B000F801918380838A819B81938382838C81BC
:1025C0009D8195838483198218821B821A82E5CFAC
:1025D000CF93DF93EC0188819981009711F00E94DD
:1025E000B02E198218821D821C821B821A82DF91F2
:1025F000CF910895FC0180819181009711F00C9496
:10260000B02E0895CF93DF93EC01898D9A8D0097BA
:1026100041F00E94DF0C898D9A8D0E94B02E1A8E97
:10262000198EDF91CF9108951092380280916F003A
:102630008E7D80936F0081E295E00E94021380916D
:10264000800090E0880F892F881F990B019789F5EA
:10265000609188007091890050E040E0209102066E
:10266000309103064217530720F5CB01841B950BCD
:1026700097FD1CC02817390708F4C90190938401FD
:1026800080938301909389008093880022533109BD
:102690008AE090E0E0918400F0918500E217F30772
:1026A000C8F30197B9F74F5F5F4FD8CF90E080E054
:1026B000E5CF80910801806280930801109281002B
:1026C00010928000089510923802EFE6F0E08081C9
:1026D0008E7D808381E295E00C9402130F931F930B
:1026E000CF93DF93EC0188819981009759F02A817B
:1026F0003B812617370730F081E0DF91CF911F91A2
:102700000F9108958B016F5F7F4F0E94392F0097C3
:1027100059F0998388831B830A832C813D81232B65
:1027200059F7FC011082E8CF80E0E7CFEF92FF92EB
:102730000F931F93CF93DF93EC017B01CB010E949A
:10274000DE2C0097A9F00C811D81080F191FB8011C
:10275000CE010E946E13882399F0288139818C81E3
:102760009D81B701820F931F0E94D72C1D830C837C
:10277000CE01DF91CF911F910F91FF90EF900895BF
:10278000CE010E94E812F4CFEF92FF920F931F93B5
:10279000CF93DF936115710541F480E0DF91CF9114
:1027A0001F910F91FF90EF90089541155105B1F0E1
:1027B0007B01EC010C811D81040F151FB8010E94E3
:1027C0006E13882351F3288139818C819D81B70153
:1027D000820F931F0E9420301D830C8381E0DECF87
:1027E000CF93DF93EC01FB014481558160817181BE
:1027F0000E94C413811103C0CE010E94E812CE01D1
:10280000DF91CF910895CF93DF9300D0CDB7DEB79E
:1028100069831A8241E050E0BE016F5F7F4F0E94E2
:10282000C4130F900F90DF91CF910895EF92FF9214
:102830000F931F93CF93DF93EC018B01CB010E9489
:10284000DE2C7C01BC01CE010E946E1381110BC0F5
:10285000CE010E94E812CE01DF91CF911F910F911E
:10286000FF90EF900895FD82EC82B80188819981F4
:102870000E94D72CF0CFFC011182108213821282A9
:10288000158214820C941614EF92FF920F931F93EB
:10289000CF93DF93EC017B018A01BA010E946E1392
:1028A00081110BC0CE010E94E812CE01DF91CF91C1
:1028B0001F910F91FF90EF9008951D830C83B70136
:1028C000888199810E942030F0CFFB010190002087
:1028D000E9F73197AF01461B570B0C9444140F9343
:1028E0001F93CF93DF93CDB7DEB729970FB6F89438
:1028F000DEBF0FBECDBF8C01862FF8011182108282
:1029000013821282158214824AE0BE016F5F7F4FEC
:1029100090E00E94FC2CBE016F5F7F4FC8010E94B7
:10292000651429960FB6F894DEBF0FBECDBFDF91B8
:10293000CF911F910F91089562E571E08CE395E0CE
:102940000E94651489E394E00E9484031816190616
:10295000CCF789E394E00E9462038A3041F08D3025
:1029600031F0682F8CE395E00E940314EBCF809147
:10297000400590914105892B29F3E0913C05F091A8
:102980003D0580818823F1F20895FB01DC01119659
:102990001C921E9213961C921E92129715961C92D0
:1029A0001E9214978617970749F06081718161150F
:1029B000710521F0448155810C9444140895FC0163
:1029C00011821082138212821582148261157105A0
:1029D00051F0FB0101900020E9F73197AF01461B50
:1029E000570B0C94441408952F923F924F925F928C
:1029F0006F927F928F929F92AF92BF92CF92DF920F
:102A0000EF92FF920F931F93CF93DF93CDB7DEB773
:102A100065970FB6F894DEBF0FBECDBF7C014B01AA
:102A200061E073E0CE010E960E943B1400E080E36B
:102A3000D82E202F30E0F70184819581281739079F
:102A4000A8F1B7E04B2E66246394712C6C0E7D1EAA
:102A5000F7E06F0E711C4A895B8937E047305105FA
:102A600008F4342F6E857F85FE01319690E080E07A
:102A7000831708F0E4C08417950708F0DCC06115DF
:102A8000710509F4D8C0DB01A80FB91F2C91A0ED86
:102A9000A20FAA3008F4D1C0AFEBA20FA63018F4F1
:102AA000A9EC5A2E520E51920196E2CF808191816B
:102AB00010E0009721F0820F931FFC01108162E566
:102AC00071E0CE0108960E94DF14EFEBE10FEA31CE
:102AD00008F096C00E2E000CFF0BEF58FA4E0C9427
:102AE000D82D8B15B515B815BB15BE15C115C41558
:102AF000C715CA15CD15D015D315D615D915DC15A2
:102B0000DF15E215E515E815EB15EE15F115F415D1
:102B1000F715FA15FD156DEF72E0CE0108960E94CB
:102B20001614BE01685F7F4FCE0101960E94C51446
:102B300060E3CE0101960E940314811104C0CE010E
:102B400001960E94E8124D815E8169817A81CE01F1
:102B50000E960E94C413CE0101960E94FA12CE0175
:102B600008960E94FA120F5F64CF6AEF72E0D5CF29
:102B700066EF72E0D2CF62EF72E0CFCF6EEE72E01E
:102B8000CCCF6AEE72E0C9CF66EE72E0C6CF62EEDD
:102B900072E0C3CF60EE72E0C0CF6CED72E0BDCFEB
:102BA00068ED72E0BACF65ED72E0B7CF6FEC72E01E
:102BB000B4CF6AEC72E0B1CF66EC72E0AECF62ECFB
:102BC00072E0ABCF6DEB72E0A8CF69EB72E0A5CFFE
:102BD00066EB72E0A2CF62EB72E09FCF6EEA72E02A
:102BE0009CCF6AEA72E099CF64EA72E096CF6FE90F
:102BF00072E093CF6BE972E090CF66E972E08DCF1F
:102C00001A8219821C821B821E821D82DC8A1D8A06
:102C1000BE016C5E7F4FCE0101960E946514BE011D
:102C20006F5F7F4FCE0108960E94AF12CE010196D2
:102C30000E94FA1276CF20E02ACF5A2E34CFDE013E
:102C4000119660E0ED91E150EF30A8F4F0E0E55D21
:102C5000F94E0C94D82D3A163A167D163A167D1672
:102C60007D167F163A167D167D167F167D167F1609
:102C70007F1681166F5FA615B70521F770E0C401B6
:102C80000E94A52D262E312C3214E8F5CE01019696
:102C90005C01F12CE12CF501C1905F0110E000E036
:102CA000D12CC601002E02C0959587950A94E2F7B3
:102CB00080FF15C0409EC001419E900D11248E0DD5
:102CC0009F1D880F991F8B579A4F0E94DC0F0E94FF
:102CD000670261E070E080E090E00E94C8020F5F50
:102CE0001F4F04301105E9F6FFEFEF1AFF0A87E0E6
:102CF000E816F10481F63394C7CF6E5FBCCF6D5FE9
:102D0000BACF6C5FB8CF0A891B8902301105E8F48D
:102D1000CE010E960E94FA1265960FB6F894DEBFA9
:102D20000FBECDBFDF91CF911F910F91FF90EF901C
:102D3000DF90CF90BF90AF909F908F907F906F90DB
:102D40005F904F903F902F90089562E571E0CE0123
:102D500008960E94DF148A899B8982309105D8F0F9
:102D60008017910708F48C01EE85FF85E00FF11FB5
:102D7000F08010826E857F856F5F7F4FCE01089651
:102D800061157105A1F00E9465148E859F85080F5D
:102D9000191FF801F082BE01685F7F4FCE010E96C9
:102DA0000E94AF12CE0108960E94FA1254CE0E94E1
:102DB000E812EBCFEF92FF920F931F93CF93DF9325
:102DC000EC017B01042F62E571E00E94DF14C70172
:102DD0000E948E0F002E000C110B97FD0BC00817E0
:102DE000190741F0682FCE010E940314C7010E9409
:102DF0008E0FF3CFCE01DF91CF911F910F91FF90F6
:102E0000EF900895EF92FF921F93CF93DF93CDB78A
:102E1000DEB7A0970FB6F894DEBF0FBECDBF7C0122
:102E2000162F642F8091A401882309F468C088E0DC
:102E3000EFE0F1E0DE01119601900D928A95E1F745
:102E4000CE014B960E946F14E12FF0E0EE0FFF1FB2
:102E500081E090E08C0F9D1FE80FF91F6081718168
:102E600044960E94DF146CE971E0CE0109960E943D
:102E7000DF14BE01675F7F4FCE010F960E94C5141D
:102E800041E050E06FE771E0CE010F960E94C4135D
:102E9000811104C0CE010F960E94E812BE016B5E44
:102EA0007F4FCE010F960E94F013BE01655E7F4FEB
:102EB0000E94F01368E171E00E949613BC01C70103
:102EC0000E94C514CE010F960E94FA12CE010996F7
:102ED0000E94FA12CE0145960E94FA12CE014B963C
:102EE0000E94FA12C701A0960FB6F894DEBF0FBE7B
:102EF000CDBFDF91CF911F91FF90EF900895CE014C
:102F00000F960E946F146CE971E0CE0101960E9449
:102F1000DF14BE016F5F7F4FCE0109960E94C5147A
:102F200042E050E063E571E0CE0109960E94C413CF
:102F3000811104C0CE0109960E94E812BE01615FB2
:102F40007F4FCE0109960E94F01363E171E00E9469
:102F50009613BC01C7010E94C514CE0109960E94B8
:102F6000FA12CE0101960E94FA12CE010F96B8CF46
:102F70003F924F925F926F927F928F929F92AF9209
:102F8000BF92CF92DF92EF92FF920F931F93CF9356
:102F9000DF93CDB7DEB72B970FB6F894DEBF0FBE29
:102FA000CDBF7C01DC0115968C91811115C0FE010D
:102FB0003196CE010C966F0130E23193E817F90794
:102FC000E1F7DA0130E087E09D91B92E992329F1EC
:102FD0009E3239F48A3011F480E0DAC038E08AE0B9
:102FE000F3CFEDE1F1E04491442321F031969413C5
:102FF000FACFF2CF831780F34FED490F4E3560F7CC
:103000004FE9490F4A3118F440EEB42EB90EF601DB
:10301000E30FF11DB0823F5FD7CF89818032E1F2AB
:10302000322E8B01FB01838D948DD7015C969C938E
:103030008E935B97168217821086118612861386EE
:1030400014861586F80182859385A485B585438904
:1030500054896589768984179507A607B70708F00C
:103060004DC025E0B695A795979587952A95D1F7F8
:10307000F82FFF70AF2ED80115968C91823008F48E
:10308000ABCFC8010E946D0F97FDA6CFF8018285D6
:103090009385A485B5854F96A11DB11D8287938721
:1030A000A487B587F0E2AF9EB0011124675C7D4F25
:1030B0006115710509F490CFDB018C91882341F0F3
:1030C000853E09F058C0BB2029F0BB24B394BACF89
:1030D000B1100EC0F701A28A809100019091010108
:1030E000A0910201B091030186879787A08BB18BD5
:1030F000DB018C918111E9CFBB24B394832D8271C4
:10310000823109F069CFBB2009F45AC0C7010E947F
:103110008806009709F460CF20E2FC0111922A95FD
:10312000E9F72BE0F601DC0101900D922A95E1F719
:1031300021E238E2DC0151963C932E93509740E017
:1031400058E01F965C934E931E9753963C932E9394
:10315000529759963C932E93589757965C934E935B
:10316000569781E00E941306882309F435CF432D3A
:10317000F70162890AC04BE050E0C6010E94F62FB9
:10318000892B09F05FCF432D6A2DC7010E943711AB
:103190002B960FB6F894DEBF0FBECDBFDF91CF9157
:1031A0001F910F91FF90EF90DF90CF90BF90AF9065
:1031B0009F908F907F906F905F904F903F90089579
:1031C000F8018581823009F407CFC8010E94400AC6
:1031D000882309F401CFD8015B96ED91FC915C97AF
:1031E00016968D909D90AD90BC901997B2E08B1A79
:1031F0009108A108B108858504C0880C991CAA1CF7
:10320000BB1C8A95D2F786859785A089B189880EDF
:10321000991EAA1EBB1E848124013501480E511C33
:10322000611C711C84149504A604B70409F1E1E043
:103230004E1A51086108710881E00E941306882324
:1032400009F4CACEE9E3F2E0119289E394E08E1723
:103250009F07D1F740920001509201016092020154
:103260007092030180918D01816080938D01DACF8E
:10327000D8015B96ED91FC91258580E092E0A0E07D
:10328000B0E004C0880F991FAA1FBB1F2A95D2F770
:10329000F8014389548965897689840F951FA61F93
:1032A000B71F838B948BA58BB68BD70152961C923C
:1032B00089E392E031CF5F926F927F928F929F92DB
:1032C000AF92BF92CF92DF92EF92FF920F931F9334
:1032D000CF93DF93CDB7DEB7C754D1090FB6F894BB
:1032E000DEBF0FBECDBF5C013B0119A218A286E371
:1032F00091E09F8F8E8F1BA21C821B829A838983F1
:103300001E8210E000E06E018EE1C80ED11C82E04A
:10331000E82E85E0F82EF501E00FF11F80818F3255
:1033200011F40F5F1F4FD501A00FB11FFE01FB96D7
:1033300090E080E04F012D912F3249F0222339F0A7
:103340000F5F1F4F019621938C309105A1F7880DD7
:10335000991DFC011082F501E00FF11F80818F3271
:1033600011F40F5F1F4FF501E00FF11F508041E096
:10337000511040E030E020E0B401C701F3010995AD
:10338000811121C0F2E0EF16F5E0FF06C1F480E004
:10339000C95BDF4F0FB6F894DEBF0FBECDBFDF9124
:1033A000CF911F910F91FF90EF90DF90CF90BF9042
:1033B000AF909F908F907F906F905F900895C7011E
:1033C0000E94DF0CE4CF552091F021E0A401B70169
:1033D000C6010E94B817982E82E0E81685E0F8062C
:1033E00081F0C7010E94DF0C911010C0D0CF92E095
:1033F000E91695E0F90619F0C7010E94DF0C81E09B
:10340000C7CF992021F2FE0131967F019E2D8F2D8D
:103410007601C92ED82E7FCF60E17AE10C945B193A
:103420001F93CF93DF93CDB7DEB76D970FB6F894A8
:10343000DEBF0FBECDBFAB011C821B8226E331E095
:103440003A8329831E8221E0BC01CE0101960E94AD
:10345000B81711E081110CC010E0812F6D960FB6E6
:10346000F894DEBF0FBECDBFDF91CF911F910895BD
:10347000CE0101960E94DF0CF0CFCF93DF93CDB742
:10348000DEB76D970FB6F894DEBF0FBECDBF4423F5
:1034900099F1AB01BC011C821B8286E391E09A8307
:1034A00089831E8222E0CE0101960E94B817811105
:1034B0000EC090E081E0911101C080E06D960FB6E2
:1034C000F894DEBF0FBECDBFDF91CF910895CE013E
:1034D00001960E94A410882361F3CE0101960E94F8
:1034E0008806009731F325EEFC0120831E8281E0DF
:1034F0000E941306982FDECF81E0E0CFEF92FF927B
:103500000F931F93CF93DF93EC017B018A011B8202
:103510001A8288EE93E0A0E0B0E08C839D83AE83B6
:10352000BF8382E491E0998388838DE190E00E94DB
:10353000142E9A8F898F009779F02DE1F701DC0125
:1035400001900D922A95E1F74CE050E0B801CE01D0
:103550000C960E942730188EDF91CF911F910F910A
:10356000FF90EF9008952F923F924F925F926F924B
:103570007F928F929F92AF92BF92CF92DF92EF9203
:10358000FF920F931F93CF93DF93CDB7DEB7C7564C
:10359000D1090FB6F894DEBF0FBECDBF5C013B0171
:1035A000A6964FAFA69719A218A286E391E09F8F27
:1035B0008E8F1BA21C821B829A8389831E824E01DE
:1035C0008EE1880E911CC4010E94580963018E018E
:1035D0000F5F1F4F240118016FE270E0C6010E94C7
:1035E0000C30009709F459C0F60120812F3271F494
:1035F000FFEFCF1ADF0A902F812F8201492E582E1C
:10360000942D852D2801092F182FE6CF8C198D3088
:1036100008F08CE0E82EF12CA701B601CE01885A03
:103620009F4F0E942730E8E5F0E0EC0FFD1FEE0D04
:10363000FF1D1082C8010E94DF0C21E0AE01485A34
:103640005F4FB201C8010E94B817811120C01EAEA1
:103650001DAE86E391E09CAF8BAF21961FAE219704
:10366000A896EEADFFADA8976E0E7F1EF301808188
:10367000811120C0BE01655C7F4FC1010E94980E80
:103680004FE751E0B101C5010E947E1A31C0CE0C56
:10369000DF1CC2010E94DF0CB3CFC6018619970957
:1036A000A8969FAF8EAFA897B201CE01CB960E948D
:1036B000980ED6CF19A218A286E391E09F8F8E8F25
:1036C0001BA221968FAD219781112DC0F501138288
:1036D000128288EE93E0A0E0B0E084839583A68315
:1036E000B78382E491E091838083128E118E1486D9
:1036F000C501C959DF4F0FB6F894DEBF0FBECDBF6D
:10370000DF91CF911F910F91FF90EF90DF90CF90BD
:10371000BF90AF909F908F907F906F905F904F90F1
:103720003F902F900895A6962FADA697A301BE01B6
:10373000655C7F4FC4010E94B817882339F2CE011F
:10374000CB960E94DF0CA6968FADA697867086302A
:1037500039F449A95AA96BA97CA9C4010E94AC09F2
:10376000B401C1010E94980EA3018CCFEF92FF9289
:103770000F931F93CF93DF93CDB7DEB76B970FB641
:10378000F894DEBF0FBECDBF8C019091FD058091F6
:1037900004069817F9F00E94141361E08091FD056A
:1037A0000E9406028091FD05863049F08E3209F4B0
:1037B00040C191E0853021F01092370203C092E0C1
:1037C000909337029DB591609DBD9CB59C7F9CBD3B
:1037D000809304060E94631341E0B801CE01019674
:1037E0000E94B31A8B819C819093240580932305BA
:1037F0008D819E81AF81B8858093250590932605A4
:10380000A0932705B093280589859A85AB85BC854B
:103810008093290590932A05A0932B05B0932C053E
:10382000DE011D96EDE2F5E08D91819365E0EA33CE
:10383000F607D1F78A8D9B8D90933B0580933A05CF
:1038400048E050E060E070E081E295E00E94F40E14
:103850008091170190911801A0911901B0911A015E
:1038600089839A83AB83BC838E010F5F1F4F7E01D8
:1038700075E0E70EF11C81E295E00E94840FF801EB
:1038800021918F01022E000C330B8217930719F43C
:10389000EE15FF0581F748E150E060E070E081E25D
:1038A00095E00E94F40E81E295E00E94840F9093CF
:1038B00001068093000681E295E00E94840F20E0DB
:1038C000382F8091000690910106282B392B3093D8
:1038D0000106209300064CE250E060E070E081E2D7
:1038E00095E00E94F40E80E490E09093360280937D
:1038F000350281E08093380280910801982F9F77EC
:103900009093080120910006309101062B3F3F4A19
:1039100030F020EC3DE53093010620930006209125
:1039200000063091010650E040E086FF84C060E070
:1039300075E38CE090E00E94B92D6AE0629FC001BF
:10394000639F900D1124909303068093020681E2F9
:1039500095E00E94840F8C0181E295E00E94B80FEF
:10396000800F911F97FD01969595879530913402B0
:10397000432F032E000C550B13160CF061C0409121
:10398000880050918900BA0102C0769567953A95F2
:10399000E2F79B01992750E040E02817390708F02B
:1039A0005CC02F5F3F4F8217930708F49C01FA0118
:1039B000EC54FE4F20834F5F5F4F4034510589F731
:1039C00050E040E02F5F3F4F8217930708F49C01BF
:1039D000FA01EC50FE4F20834F5F5F4F403451059A
:1039E00089F71092B301109206011092070110920C
:1039F000B201F8948091020690910306909387009B
:103A00008093860082E88093800089E18093810022
:103A100081E280936F0078946B960FB6F894DEBFC6
:103A20000FBECDBFDF91CF911F910F91FF90EF900F
:103A3000089593E0C5CE60E07AE688E190E07BCF20
:103A4000209188003091890051954195510902C01B
:103A5000220F331F4A95E2F79DCFB90161507109DA
:103A60006817790718F12115310509F09B01FA0152
:103A7000EC54FE4F20834F5F5F4F4034510569F790
:103A800050E040E0B901615071096817790780F092
:103A90002115310509F09B01FA01EC50FE4F2083FE
:103AA0004F5F5F4F4034510569F79BCF9C01DFCFDB
:103AB0009C01F2CF0F931F93CF93DF9300D000D0E0
:103AC00000D0CDB7DEB78C01FC01808191810E94CE
:103AD0000C1A882381F0F801808191810E94B61B25
:103AE00026960FB6F894DEBF0FBECDBFDF91CF9103
:103AF0001F910F91089568E872E0CE0101960E942F
:103B00003B1489819A810E94B61BCE0101960E94C6
:103B1000FA12E6CFCF93DF9300D000D000D0CDB71C
:103B2000DEB7BC01CE0101960E94C514CE010196FC
:103B30000E945A1DCE0101960E94FA12809138020D
:103B4000882339F061E070E080E090E00E94C802D4
:103B5000F5CF26960FB6F894DEBF0FBECDBFDF912E
:103B6000CF9108951F93CF93DF9300D000D000D062
:103B7000CDB7DEB7182F8FEF8093A5018091420556
:103B80008F3F19F00E945B10F9CF113071F467ED8F
:103B900070E0CE0101960E943B14CE0101960E9476
:103BA0008A1DCE0101960E94FA121093A501269655
:103BB0000FB6F894DEBF0FBECDBFDF91CF911F913E
:103BC00008951F93CF93DF93CDB7DEB7A1970FB6BC
:103BD000F894DEBF0FBECDBF69E071E0CE014C9618
:103BE0000E943B146C8D7D8D41E0CE0101960E94B8
:103BF000B31ACE014C960E94FA12CE0101960E9491
:103C0000E80E10E0882349F0CE0101960E94840F4F
:103C1000182FCE0101960E940213812FA1960FB694
:103C2000F894DEBF0FBECDBFDF91CF911F910895F5
:103C3000FF920F931F93CF93DF93CDB7DEB7A1977A
:103C40000FB6F894DEBF0FBECDBF182F6AE070E04C
:103C500080E090E00E94C80261E071E0CE014C96E5
:103C60000E943B146C8D7D8D41E0CE0101960E9437
:103C7000B31ACE014C960E94FA1283E0189FA0015D
:103C80001124052E000C660B770BCE0101960E94C5
:103C9000F40ECE0101960E94840FF82ECE010196FB
:103CA0000E94840F082FCE0101960E94840F182FC6
:103CB000CE0101960E9402136F2D702F812FA196C5
:103CC0000FB6F894DEBF0FBECDBFDF91CF911F912D
:103CD0000F91FF9008951F93CF93DF93CDB7DEB779
:103CE000A1970FB6F894DEBF0FBECDBF6CEC70E0AD
:103CF000CE0101960E943B1489819A810E940C1A80
:103D0000182FCE0101960E94FA12112381F061EC66
:103D100070E0CE0101960E943B146DE37AE1898147
:103D20009A810E945B19CE0101960E94FA1266EBFD
:103D300070E0CE014C960E943B146C8D7D8D47E166
:103D4000CE0101960E94B31ACE014C960E94FA123F
:103D500060919B01CE0101960E94570F6091FB0577
:103D6000CE0101960E94570FCE0101960E940213C8
:103D7000A1960FB6F894DEBF0FBECDBFDF91CF91F5
:103D80001F910895CF93DF9300D000D000D0CDB71E
:103D9000DEB78091FA05882349F1809138028111BC
:103DA00025C08091FB05833018F081508093FB057E
:103DB00081E08093F9058091FB0591E0833008F460
:103DC00090E09093FA058450809334020E946B1E19
:103DD00062EF70E0CE0101960E943B14CE01019685
:103DE0000E948A1DCE0101960E94FA1226960FB6F5
:103DF000F894DEBF0FBECDBFDF91CF910895CF9372
:103E0000DF9300D000D000D0CDB7DEB78091F905A8
:103E1000882349F180913802811125C08091FB05EA
:103E2000863018F48F5F8093FB058091FB0591E04D
:103E3000863008F090E09093F90591E09093FA05B0
:103E40008450809334020E946B1E63EE70E0CE01BA
:103E500001960E943B14CE0101960E948A1DCE015C
:103E600001960E94FA1226960FB6F894DEBF0FBE96
:103E7000CDBFDF91CF910895FF920F931F93CF9302
:103E8000DF93CDB7DEB7A7970FB6F894DEBF0FBEAE
:103E9000CDBF6CEA70E0CE014C960E943B146C8D55
:103EA0007D8D41E0CE0101960E94B31ACE014C9661
:103EB0000E94FA12CE0101960E94E80E882309F4AE
:103EC0007BC040918501509186016091870170917E
:103ED0008801CE0101960E94F40E40E2BE016F5FA0
:103EE0007F4FCE0182960E94DA16CE0182960E9402
:103EF0004F2C4AE0BE016F5F7F4FCE014C960E946F
:103F0000DA16CE014C960E944F2C8C8D9D8DF12C93
:103F1000009719F00E94B02CF62EEA8DFB8D309799
:103F200069F082859385A485B5854389548965891F
:103F3000768984179507A607B70718F080E090E008
:103F4000DC018093850190938601A0938701B09353
:103F50008801CE0101960E9402130EA11FA10F3FFE
:103F6000100729F001151105D9F410929C0181E088
:103F7000F81280E08093A401CE014C960E94FA12C0
:103F8000CE0182960E94FA12A7960FB6F894DEBF71
:103F90000FBECDBFDF91CF911F910F91FF9008957C
:103FA0006AA17BA1A8018CE991E00E942730F80169
:103FB000E456FE4F1082DBCF62E0809145050E94FF
:103FC000FB0262EA70E0CE014C960E943B1466E967
:103FD00070E0CE014C960E94F414CE014C960E94E3
:103FE000FA12EACFCF92DF92EF92FF920F931F93D4
:103FF000CF93DF93CDB7DEB7EC970FB6F894DEBF63
:104000000FBECDBF8EE690E00E94B01100E037E019
:10401000D32E802F6D2D0E94992D282F892F90E06F
:104020002D9D800D911D1124880F991F8B579A4F3C
:104030000E94DC0F182F0E946702C12C8FEF9FEFA8
:104040007C0181E00E948E02E816F906D1F4C39447
:1040500023E0C212F5CFE12FF0E0EE0FFF1F81E069
:1040600090E08C0F9D1FE80FF91FF1A2E0A298EEDF
:10407000E91693E0F9066CF481E00E948E027C015F
:10408000F6CF883EE3E09E0714F08FEF9FEFC12C40
:10409000D7CF0F5F0E3009F0BCCFFE01B196DE0125
:1040A0001596CE01CD96219131912D933D938E178A
:1040B0009F07C9F783ED91E6A9E2B0E089839A836F
:1040C000AB83BC83FE0131967F0110E000E0F70175
:1040D000D1907F01C8010E94322DD81621F06D2D9C
:1040E000C8010E943A2D0F5F1F4F0032110579F76A
:1040F00088E690E00E94B011EC960FB6F894DEBF0F
:104100000FBECDBFDF91CF911F910F91FF90EF9028
:10411000DF90CF900C9411121F920F920FB60F9256
:1041200011242F933F938F939F93AF93BF938091CD
:10413000A8019091A901A091AA01B091AB01309181
:10414000A70123E0230F2D3758F50196A11DB11DBE
:104150002093A7018093A8019093A901A093AA019D
:10416000B093AB018091AC019091AD01A091AE01F3
:10417000B091AF010196A11DB11D8093AC01909348
:10418000AD01A093AE01B093AF01BF91AF919F91EC
:104190008F913F912F910F900FBE0F901F90189508
:1041A00026E8230F0296A11DB11DD2CF1F920F92B8
:1041B0000FB60F9211242F933F934F935F936F93FA
:1041C0007F938F939F93AF93BF93EF93FF9389E375
:1041D00094E00E94A403FF91EF91BF91AF919F9152
:1041E0008F917F916F915F914F913F912F910F90A0
:1041F0000FBE0F901F9018951F920F920FB60F923F
:1042000011242F938F939F93EF93FF93E091490491
:10421000F0914A048081E0914F04F091500482FDB6
:104220001BC09081809152048F5F8F732091530443
:10423000821741F0E0915204F0E0E75CFB4F958F6C
:1042400080935204FF91EF919F918F912F910F9046
:104250000FBE0F901F9018958081F4CF1F920F9280
:104260000FB60F9211242F933F934F935F938F9329
:104270009F93EF93FF938091080186FD3FC02091AB
:104280003402422F022E000C550B27FF4FC08091A5
:10429000B3012091B20130E4839FC00111248C54FA
:1042A0009E4F820F911DFC01808190E051954195B8
:1042B000510902C0959587954A95E2F7909384013C
:1042C0008093830190938900809388008091B2014C
:1042D0008F5F8093B2018091B2018034D0F0109250
:1042E000B201E091B301F0E0EA5FFE4F91E090830C
:1042F0008091B30189278093B3010BC080918A011B
:1043000091E0892780938A0180918A01882309F4AA
:10431000B6CFFF91EF919F918F915F914F913F9118
:104320002F910F900FBE0F901F9018958091B301A1
:104330003091B201F0E48F9FC00111248C549E4F44
:10434000830F911DFC01808190E002C0880F991FAE
:104350002A95E2F7B3CF1F920F920FB60F92112456
:104360002F933F934F935F936F937F938F939F937D
:10437000AF93BF93EF93FF93E091B30191E0E927EF
:10438000F0E0EA5FFE4F80818823C9F18091B3019C
:1043900089278093890180916F008F7D80936F00C2
:1043A000789481E295E00E940A0F209135023091C5
:1043B000360228173907A0F18091080183FF0EC04B
:1043C0004CE250E060E070E081E295E00E94F40E83
:1043D00080916F00806280936F0011C080916F00A8
:1043E0008E7D80936F0081E295E00E94E80E882325
:1043F00021F081E295E00E94021310923802FF91B1
:10440000EF91BF91AF919F918F917F916F915F914C
:104410004F913F912F910F900FBE0F901F901895C5
:104420006091890180913A0590913B05009751F088
:1044300020E4629FB00111246C547E4F40E450E0B0
:104440000E94400BE0918901F0E0EA5FFE4F10828C
:10445000BFCF7F928F929F92AF92BF92CF92DF9207
:10446000EF92FF920F931F93CF93DF93FC01118282
:104470001082D0E0C0E0812C912C5401839470E034
:1044800050E030E07C2ED501C4010C2E04C0880F12
:10449000991FAA1FBB1F0A94D2F7E080F1808B01FD
:1044A0000C2E02C0159507950A94E2F700FF4CC048
:1044B0008E299F2991838083CE0105968501740101
:1044C00004C0EE0CFF1C001F111F8A95D2F7C70114
:1044D000E080F1808A01072C02C0159507950A94A7
:1044E000E2F700FF38C08E299F2991838083CE0197
:1044F0000A968501740104C0EE0CFF1C001F111FF9
:104500008A95D2F7C70100811181790102C0F59423
:10451000E7947A94E2F7E0FE25C0802B912B9183FB
:1045200080832196C530D10509F0ACCFDF91CF91C2
:104530001F910F91FF90EF90DF90CF90BF90AF90C1
:104540009F908F907F9008956C01C094D094C60185
:104550008E219F21AFCF6C01C094D094C6018E21D3
:104560009F21C3CF8095909580239123D8CF2F9200
:104570003F924F925F926F927F928F929F92AF92F3
:10458000BF92CF92DF92EF92FF920F931F93CF9340
:10459000DF93CDB7DEB76F970FB6F894DEBF0FBECF
:1045A000CDBF10923C0410923B0488EE93E0A0E053
:1045B000B0E080933D0490933E04A0933F04B093F9
:1045C000400424E231E030933A042093390425EC8E
:1045D00030E0309346042093450424EC30E03093DF
:1045E00048042093470420EC30E030934A042093A1
:1045F000490421EC30E030934C0420934B0422EC2E
:1046000030E030934E0420934D0426EC30E030939C
:10461000500420934F0410925204109253041092AD
:1046200054041092550420E52093D6041092D70428
:104630001092DD041092DE041092E1041092E30463
:1046400042E050E060E070E04093E4045093E50401
:104650006093E6047093E7041092FB041092050542
:104660001092040526E331E0309303052093020500
:1046700010920705109224051092230580932505BA
:1046800090932605A0932705B093280582E491E036
:10469000909322058093210510923B0510923A05D4
:1046A00010922D0584E08093FB0581E08093F9054D
:1046B0008093FA058093FC0590E080E052E4C52EDB
:1046C00055E0D52EFC01EB57FA4F20E011921192E4
:1046D0002F5F2730D9F70E968833910579F726E0BA
:1046E00044E066E085E895E00E94292224E046E067
:1046F00064E087E895E00E94292225E044E067E035
:1047000089E895E00E94292223E047E064E08BE8F5
:1047100095E00E94292222E045E066E08DE895E0E0
:104720000E94292221E046E065E08FE895E00E94A2
:10473000292220E045E067E081E995E00E942922F6
:104740002DE043E066E083E995E00E9429222CE019
:1047500046E063E085E995E00E9429222BE043E0F2
:1047600067E087E995E00E9429222AE047E063E0BC
:1047700089E995E00E94292229E044E065E08BE97F
:1047800095E00E94292228E045E064E08DE995E06B
:104790000E94292227E047E065E08FE995E00E942A
:1047A000292224E142E066E081EA95E00E94292284
:1047B00022E146E062E083EA95E00E94292223E1BB
:1047C00042E067E085EA95E00E94292221E147E086
:1047D00062E087EA95E00E94292220E143E064E05C
:1047E00089EA95E00E9429222FE044E063E08BEA09
:1047F00095E00E9429222EE043E065E08DEA95E0F5
:104800000E9429222BE142E063E08FEA95E00E94BA
:1048100029222AE143E062E081EB95E00E9429220F
:1048200029E142E064E083EB95E00E94292228E13F
:1048300044E062E085EB95E00E94292227E142E016
:1048400065E087EB95E00E94292226E145E062E0E1
:1048500089EB95E00E94292225E145E063E08BEB9E
:1048600095E00E942922F12CE12C412C512C32019F
:10487000439410E000E0C7018B579A4F1C01C1011F
:10488000800F911F0E94DC0F90E0F801ED5BFF4F5D
:10489000EC0DFD1D4081518130E020E0E0E053014E
:1048A0004201022E04C0880C991CAA1CBB1C0A944D
:1048B000D2F7BA01022E02C0759567950A94E2F705
:1048C00060FF84C0E8292F5F3F4F2530310539F75D
:1048D000DC01AA0FBB1FA354BA4FEC9330E020E0D9
:1048E000E0E053014201022E04C0880C991CAA1C6E
:1048F000BB1C0A94D2F7B9016B5F7F4FDA0102C08B
:10490000B595A7956A95E2F7A0FF64C0E8292F5FE7
:104910003F4F2530310529F7880F991FDC01A2543C
:10492000BA4FEC930E5F1F4F0E30110509F0A7CF61
:10493000BEE0EB0EF11C8EE0C80ED11C98E3E91628
:10494000F10409F096CF86E08093F50597E0909307
:10495000F6059093F7058093F8058CE18093440564
:104960008DE1809345058FEF809342058FE1FE0135
:104970003196A7E4B5E001900D928A95E1F78FE1B9
:10498000FE013196A6E6B5E001900D928A95E1F719
:1049900062E571E08CE395E06F960FB6F894DEBFA8
:1049A0000FBECDBFDF91CF911F910F91FF90EF9080
:1049B000DF90CF90BF90AF909F908F907F906F903F
:1049C0005F904F903F902F900C94DF14682D60956E
:1049D000E62379CF682D6095E62399CFCF93DF93B7
:1049E000CDB7DEB7CC53D1400FB6F894DEBF0FBEC3
:1049F000CDBF789484B5826084BD84B5816084BD68
:104A000085B5826085BD85B5816085BD80916E006C
:104A1000816080936E00109281008091810082609D
:104A200080938100809181008160809381008091DA
:104A300080008160809380008091B10084608093C9
:104A4000B1008091B00081608093B00080917A00C5
:104A5000846080937A0080917A00826080937A00EB
:104A600080917A00816080937A0080917A008068DA
:104A700080937A001092C100E0914904F0914A04B9
:104A800082E08083E0914904F0914A041082E09131
:104A90004504F09146041082E0914704F0914804E7
:104AA00080E1808310925104E0914D04F0914E0416
:104AB00086E08083E0914B04F0914C04808180611A
:104AC0008083E0914B04F0914C0480818860808366
:104AD000E0914B04F0914C04808180688083E091E8
:104AE0004B04F0914C0480818F7D80838091070579
:104AF000882321F082E095E00E94DF0C1092E3040D
:104B00001092E1041092DE041092DD048AE080939A
:104B1000DC040E9419038B0161E08091DC040E9497
:104B2000060261E08091DC040E94BA01FFB6F894AD
:104B300080919201811127C0E6E5F2E08491EAE6D6
:104B4000F2E09491E82FF0E0EE0FFF1FE85CFD4FDC
:104B5000A591B491EC91E92321F461E08AE00E94EF
:104B6000BA0161E08AE00E9406028CB580618CBDCA
:104B70008CB580648CBD61E08DE00E94060261E02E
:104B80008BE00E940602809192018F5F80939201D8
:104B9000FFBE82E58093D6041092D7048091D6049C
:104BA0009091D7040E946904FAE0FF2E8FEF0E94D3
:104BB0004404FA94F110FACF88ED94E00E946C045A
:104BC00020E030E0A90160E088ED94E00E948204DA
:104BD000F82E8093E20421E0821709F46DC00E9450
:104BE0001903601B710B613D774050F381E08093A6
:104BF000DD0488ED94E00E9439041092FC050E94C7
:104C000011128E010F5F1F4FC8010E94F51189819B
:104C10009A81AB81BC81833D9146A942B10551F097
:104C20008DE291E00E94B011809144050E946702DC
:104C30000E94F21F4E01F5E58F0E911C64E9A62E2D
:104C400061E0B62E1E0126E0220E311C89E394E0BD
:104C50000E948403181619060CF0B3C181E08093FA
:104C6000A601809144050E9467028091A6018823D5
:104C700009F4B5C10E949C146FE671E0C8010E945E
:104C80003B14C8010E947C12F82EC8010E94FA123F
:104C9000FF2009F4F1C00E949C14E0903C05F090C4
:104CA0003D05C7010E940C1A882309F49AC090E0C0
:104CB00080E00E94D011F0C02AEA31E040E050E0EC
:104CC00068E088ED94E00E94820482FF2AC0F0929E
:104CD000E3048091E304C12CD12CE12C70E4F72E85
:104CE000823019F0C12CD12C760120E030E0A901EE
:104CF00067E388ED94E00E948204A701960169E2CF
:104D000088ED94E00E9482048093E2048823D1F02D
:104D10000E941903601B710B613D774030F388E0FE
:104D200066CFE4E0FE2E0E944B048093E204FA94E6
:104D3000F110F9CF8A3A11F082E059CF82E08093E6
:104D4000E304C7CF8091E3048230D1F420E030E067
:104D5000A9016AE388ED94E00E948204882311F09F
:104D600086E045CF0E944B04807C803C19F483E0B0
:104D70008093E3040E944B040E944B040E944B0466
:104D800088ED94E00E94390480E58093D604109267
:104D9000D70481E00E94A1068823B1F082E095E06B
:104DA0000E945809882309F428CF89E08093FD05E3
:104DB0008091FB05845080933402809138028823CF
:104DC00051F00E9414131BCF80E00E94A10688239B
:104DD00009F413CFE3CF8091080180648093080128
:104DE000F0CF81E090E00E94D0110E949C1480914D
:104DF0003C0590913D05412C512C3201009721F04A
:104E00000E94B02C2B013C01411451046104710437
:104E100009F44DCF81E090E00E94D01147E1B70145
:104E2000CE018F5F9E4F0E94B31AC12CD12C760108
:104E300089E394E00E9484031816190654F489E368
:104E400094E00E94620389838FEFC81AD80AE80AA7
:104E5000F80A40E051E0B801CE018F5F9E4F0E94FA
:104E60003A0FC414D504E604F70410F3CE018F5FA3
:104E70009E4F0E94021310C069E671E0C8010E94B3
:104E80003B14C8010E947C12F82EC8010E94FA123D
:104E9000FF2049F00E94F21F62E571E08CE395E08B
:104EA0000E946514E2CE65E671E0C8010E943B14E1
:104EB000C8010E947C12F82EC8010E94FA12FF203D
:104EC00019F081E090E0F5CE6DE571E0C8010E9437
:104ED0003B14C8010E947C12F82EC8010E94FA12ED
:104EE000FF2009F458C06EE371E0CE018F5F9E4F42
:104EF0000E943B14CF5FDE4F68817981C150D14061
:104F000041E0C8010E94B31ACE018F5F9E4F0E94FC
:104F1000FA12C8010E94E80E882399F1C8010E9484
:104F20000A0F18161906ACF540E2B801CE01845EEE
:104F30009E4F0E94DA16C05EDE4F48815981C052F2
:104F4000D140C45EDE4F68817981CC51D14089E384
:104F500094E00E94260380E591E00E94A3114AE0BC
:104F6000B801CE018F5F9E4F0E94DA16CE018F5F8F
:104F70009E4F0E94FA12CE01845E9E4F0E94FA124A
:104F8000CDCF8EE691E00E94A31180E591E00E94D2
:104F9000A311C8016ECF68E571E0C8010E943B14FF
:104FA000C8010E947C12F82EC8010E94FA12FF204C
:104FB00019F01092A60170CF88E491E00E94B01120
:104FC0006BCFF090A50192E0F91609F49FC19F15EF
:104FD00098F0FF2011F1E1E0FE1609F4DFC080E057
:104FE00090E0892B09F432CE0E949003882309F4C3
:104FF0002DCE0E94000022CEF4E0FF1609F40CC46E
:10500000FF1608F432C325E0F212E9CF0E945B10CC
:1050100080914305882319F3A2C28091FC05811178
:1050200013C063E0809145050E94FB0262E372E0D9
:10503000C8010E943B1466E970E0C8010E94F414A4
:10504000C8010E94FA12CBCF61E072E0CE018F5FFF
:105050009E4F0E943B14CF5FDE4F68817981C15023
:10506000D14041E0C8010E94B31ACE018F5F9E4F2C
:105070000E94FA12C8010E94E80E8823E9F0C801D4
:105080000E94840F80939B01C8010E94840F91E0CD
:105090009093F9059093FA05863008F474C086E081
:1050A0008093FB051092F9058091FB058450809355
:1050B0003402C8010E94021361E0809144050E94FD
:1050C000FB028AE292E00E94B01150E5E52E53EC1B
:1050D000F52E89E394E00E948403892B21F491E06A
:1050E000E91AF108B1F789E394E00E948403892B5F
:1050F00009F075CF0E943C1F6CE172E0C8010E946C
:105100003B14C8010E945A1DC8010E94FA1266E1B0
:1051100072E0C8010E943B1464E670E0C8010E947E
:10512000F414C8010E94FA120E9463130E9437020D
:1051300081E08093A5016CE971E0C8010E94DF1451
:10514000B801CE018F5F9E4F0E94C5146CE072E0E3
:10515000CE018F5F9E4F0E949613BC01CE01845EEC
:105160009E4F0E94C514CE01845E9E4F0E948A1DF0
:10517000CE01845E9E4F0E94FA12CE018F5F9E4F39
:105180000E94FA125DCF833030F482E08093FB05F9
:105190001092FA0589CF8093FB0586CF0E945B10A1
:1051A000809142058A3009F4AFC050F4863091F006
:1051B000873009F4A0C0811139C00E94FF1E36C09B
:1051C000853109F49BC08B3109F448C0813171F5F8
:1051D00085E097C00E943C1F6CE971E0CE01845EBF
:1051E0009E4F0E94DF14BE01645E7E4FCE018F5F32
:1051F0009E4F0E94C51463EE71E0CE018F5F9E4FFB
:105200000E949613BC01C8010E94C514C8010E94E7
:105210008A1DC8010E94FA12CE018F5F9E4F0E9424
:10522000FA12CE01845E9E4F0E94FA1285E0EBE1F5
:10523000F1E0D80101900D928A95E1F77801F7012C
:1052400081917F010E94670261E070E080E090E060
:105250000E94C8022E143F0491F7C1CE80913802FB
:105260008111E4CF0E94E11D8A3010F40E94E11DFB
:105270000E94E11D8A30E0F50E94E11DF82E88238E
:1052800059F062EF71E0C8010E943B14C8010E940E
:105290008A1DC8010E94FA126F2DCE018F5F9E4FAA
:1052A0000E946F1462E771E0C8010E94DF14BE0122
:1052B0006F5F7E4FC8010E94F0136DEE71E00E9497
:1052C0009613BC01CE01845E9E4F0E94C514CE0190
:1052D000845E9E4F0E948A1DCE01845E9E4F0E9476
:1052E000FA12C8010E94FA12CE018F5F9E4F9CCF26
:1052F0004AE0F42EC6CF0E94C21E98CF109205013C
:1053000082E00E94B21D92CF84E0FBCF8091050124
:10531000813009F4E4C070F1823009F405C18330B2
:1053200009F05DCEF12C80919A018F1508F457CECB
:105330008F2D0E94181EE62ED72E0E9467024D2D3B
:105340006E2DC8010E940217C8010E948A1DC80163
:105350000E94FA120E94370210929901B0929801AD
:10536000A09297012FEF2093040182E08093050122
:10537000F394D9CF0E94370210929A0110929901AA
:105380006CE971E0C8010E94DF146AE771E0CE01A8
:105390008F5F9E4F0E94DF14B801CE018F5F9E4F3A
:1053A0000E94F0136EED71E00E949613FC01608183
:1053B000718141E0CE01845E9E4F0E94B31ACE01FE
:1053C0008F5F9E4F0E94FA12C8010E94FA1240910C
:1053D0009B01F4E54F9FA0011124052E000C660BE4
:1053E000770BCE01845E9E4F0E94F40E6801780117
:1053F000CE01845E9E4F0E94840FF70181937F014E
:10540000E815F905A9F7CE01845E9E4F0E940213AC
:1054100066ED71E0CE018F5F9E4F0E943B14CF5F1F
:10542000DE4F88819981C150D1400E940C1A782E9C
:10543000CE018F5F9E4F0E94FA127720B1F06EEC82
:1054400071E0CE018F5F9E4F0E943B146DE37AE1C5
:10545000CF5FDE4F88819981C150D1400E945B1996
:10546000CE018F5F9E4F0E94FA1266EC71E0CE0172
:10547000895C9E4F0E943B14C95CDE4F6881798134
:10548000C753D14047E1CE018F5F9E4F0E94B31AB0
:10549000CE01895C9E4F0E94FA12F60161916F0164
:1054A000CE018F5F9E4F0E94570FEC14FD04A9F7A9
:1054B000CE018F5F9E4F0E9402139A818B812981BA
:1054C00020939401909395018093960180919B0184
:1054D0008F5F80939B010E946B1E81E04CC0809186
:1054E000380281117CCD80919A010E94181EE62E0F
:1054F000D72E0E94670210929901B0929801A09253
:105500009701FFEFF09304014D2D6E2DC8010E940D
:105510000217C8010E948A1DC8010E94FA120E9447
:105520003702F09205015BCD0E945B10809142052D
:105530008F3F51F1F0904305FF2019F18091420512
:105540008F3F19F00E945B10F9CF8093040192E025
:10555000F91681F09F1528F0E1E0FE1240CD81E0C0
:1055600081C0F3E0FF1651F024E0F21238CD0E9422
:10557000C21E35CD83E08093050131CD0E94FF1E10
:105580002ECD809304012BCDC09004019FEFC9164E
:1055900009F425CDE0909701F0909801F7019281F0
:1055A000C9125FC0809304017090440534E6D32E85
:1055B000872D0E94670261E070E080E090E00E9429
:1055C000C8028C2D0E94670261E070E080E090E0EC
:1055D0000E94C802DA94D110EBCFF70182810E94B9
:1055E0006702F70141816081C8010E940217C8016A
:1055F0000E945A1DC8010E94FA1280913802F09050
:105600009901E0909A018823B1F0EF1468F00E94AC
:105610005B10809142058F3F81F30E94631380915C
:10562000420580930401E9CF61E070E080E090E002
:105630000E94C802E2CF0E94370281E08F0D809362
:105640009901E81650F00E94181E69837A838B83B3
:105650001093980100939701C2CCE394E0929A01D1
:105660003CCF83E00E94B21DBACC0E94E11DF090B5
:105670009A018F15D0F566E871E0C8010E943B14CD
:1056800089819A810E940C1AE82EC8010E94FA12A0
:10569000EE2071F06CE771E0C8010E943B146DE3ED
:1056A0007AE189819A810E945B19C8010E94FA12ED
:1056B00062E771E0CE018F5F9E4F0E943B14CF5F87
:1056C000DE4F68817981C150D14047E1C8010E9415
:1056D000B31ACE018F5F9E4F0E94FA126F2DC80140
:1056E0000E94570FC8010E94021363E08091450594
:1056F0000E94FB0269EB71E0C8010E943B14C801E3
:105700000E948A1DC8010E94FA1280919A01882382
:10571000E1F16AEA71E0C8010E943B14C8010E94ED
:105720008A1DC8010E94FA1260919A016B3008F03C
:105730006AE0CE018F5F9E4F0E946F1462E771E0B6
:10574000CE01845E9E4F0E94DF14BE016F5F7E4FCC
:10575000CE01845E9E4F0E94F01365EA71E00E94C4
:105760009613BC01C8010E94C514C8010E948A1D7D
:10577000C8010E94FA12CE01845E9E4F0E94FA1266
:10578000CE018F5F9E4F0E94FA1280919A01853060
:1057900050F56CE971E0CE01845E9E4F0E94DF14EB
:1057A000BE01645E7E4FCE018F5F9E4F0E94C51486
:1057B0006AE971E0CE018F5F9E4F0E949613BC0193
:1057C000C8010E94C514C8010E945A1DC8010E9448
:1057D000FA12CE018F5F9E4F0E94FA12CE01845EB4
:1057E0009E4F0E94FA1260E971E0C8010E943B14CA
:1057F00060EA70E0C8010E94F414C8010E94FA1225
:1058000080913802882309F4AACE61E070E080E03C
:1058100090E00E94C802F4CF0E945B108091420584
:105820008F3F19F0109293019ACEF090930127E0E8
:105830008F2D622F0E94992D382F892F90E0329F53
:10584000800D911D1124880F991F8B579A4F0E942C
:10585000DC0F0E94670268EC70E080E090E00E943C
:10586000C80281E08F0D8C3119F080939301B7CB82
:1058700010929301809144050E94670268EC70E0E9
:1058800080E090E00E94C802809145050E94670276
:1058900068EC70E080E090E00E94C802A0CBAF927C
:1058A000BF92CF92DF92EF92FF920F931F93CF930D
:1058B000DF93DC01CD90DC901197C114D10439F055
:1058C0001496CD91DC918C017601209761F4DF91E3
:1058D000CF911F910F91FF90EF90DF90CF90BF90ED
:1058E000AF90089575015701BFEFAB1ABB0AF701DE
:1058F0008081082E000C990B0E94162D892B91F7A0
:105900002197CC0DDD1D8881082E000C990B0E947B
:10591000162D892B29F0CE15DF0510F02197F3CF36
:10592000AE014F5F5F4F4E195F09D80115965C932A
:105930004E931497CE14DF0420F4B701C6010E94E1
:105940000330D801ED91FC91119714968D919C91A3
:10595000E80FF91F1082BBCF8CE395E00C94FA128C
:105960001F93FC0199278827BC01E89411911032FC
:10597000E9F3193010F01E30C8F31B3251F01D321C
:1059800049F4689406C00E94E72C610F711D811DC7
:10599000911D119110531A30B0F33EF490958095FB
:1059A000709561957F4F8F4F9F4F1F910895FB0119
:1059B000DC0105900D920020E1F70895FC010590AF
:1059C0000020E9F7809590958E0F9F1F0895592F1D
:1059D000482F372F262F660F771F881F991F660FB6
:1059E000771F881F991F620F731F841F951F660FF3
:1059F000771F881F991F0895BB27FB015527AA27EA
:105A0000880F991FAA1FA41710F0A41B839550514B
:105A1000B9F7A05DAA3308F0A95DA193009779F7C3
:105A2000B111B1931192CB010C941F2D91110C94D3
:105A30002F2D803219F089508550C8F70895DC0168
:105A4000FC01672F71917723E1F7329704C07C91B5
:105A50006D9370836291AE17BF07C8F308959927BD
:105A600088270895F999FECF92BD81BDF89A9927AC
:105A700080B50895262FF999FECF1FBA92BD81BD3A
:105A800020BD0FB6F894FA9AF99A0FBE01960895C0
:105A90000E948A2DA59F900DB49F900DA49F800D0C
:105AA000911D112408952F923F924F925F926F9211
:105AB0007F928F929F92AF92BF92CF92DF92EF929E
:105AC000FF920F931F93CF93DF93CDB7DEB7CA1B1F
:105AD000DB0B0FB6F894DEBF0FBECDBF09942A884A
